{
  "abi": [
    {
      "inputs": [
        {
          "internalType": "address",
          "name": "_treasuryOwner",
          "type": "address"
        },
        {
          "internalType": "address",
          "name": "_treasuryAddress",
          "type": "address"
        },
        {
          "internalType": "address",
          "name": "_nftAddress",
          "type": "address"
        },
        {
          "internalType": "uint256",
          "name": "_slotPrice",
          "type": "uint256"
        },
        {
          "internalType": "bytes32",
          "name": "_keyhash",
          "type": "bytes32"
        },
        {
          "internalType": "address",
          "name": "_vrfCoordinator",
          "type": "address"
        },
        {
          "internalType": "address",
          "name": "_linkToken",
          "type": "address"
        },
        {
          "internalType": "uint256",
          "name": "_fee",
          "type": "uint256"
        },
        {
          "internalType": "uint256",
          "name": "_numSlotsAvailable",
          "type": "uint256"
        }
      ],
      "stateMutability": "nonpayable",
      "type": "constructor"
    },
    {
      "anonymous": false,
      "inputs": [
        {
          "indexed": false,
          "internalType": "address",
          "name": "account",
          "type": "address"
        }
      ],
      "name": "Paused",
      "type": "event"
    },
    {
      "anonymous": false,
      "inputs": [
        {
          "indexed": true,
          "internalType": "address",
          "name": "winner",
          "type": "address"
        }
      ],
      "name": "RaffleWon",
      "type": "event"
    },
    {
      "anonymous": false,
      "inputs": [
        {
          "indexed": true,
          "internalType": "bytes32",
          "name": "role",
          "type": "bytes32"
        },
        {
          "indexed": true,
          "internalType": "bytes32",
          "name": "previousAdminRole",
          "type": "bytes32"
        },
        {
          "indexed": true,
          "internalType": "bytes32",
          "name": "newAdminRole",
          "type": "bytes32"
        }
      ],
      "name": "RoleAdminChanged",
      "type": "event"
    },
    {
      "anonymous": false,
      "inputs": [
        {
          "indexed": true,
          "internalType": "bytes32",
          "name": "role",
          "type": "bytes32"
        },
        {
          "indexed": true,
          "internalType": "address",
          "name": "account",
          "type": "address"
        },
        {
          "indexed": true,
          "internalType": "address",
          "name": "sender",
          "type": "address"
        }
      ],
      "name": "RoleGranted",
      "type": "event"
    },
    {
      "anonymous": false,
      "inputs": [
        {
          "indexed": true,
          "internalType": "bytes32",
          "name": "role",
          "type": "bytes32"
        },
        {
          "indexed": true,
          "internalType": "address",
          "name": "account",
          "type": "address"
        },
        {
          "indexed": true,
          "internalType": "address",
          "name": "sender",
          "type": "address"
        }
      ],
      "name": "RoleRevoked",
      "type": "event"
    },
    {
      "anonymous": false,
      "inputs": [
        {
          "indexed": true,
          "internalType": "address",
          "name": "claimee",
          "type": "address"
        },
        {
          "indexed": false,
          "internalType": "uint256",
          "name": "numClaimed",
          "type": "uint256"
        }
      ],
      "name": "SlotsClaimed",
      "type": "event"
    },
    {
      "anonymous": false,
      "inputs": [
        {
          "indexed": true,
          "internalType": "address",
          "name": "refunder",
          "type": "address"
        },
        {
          "indexed": false,
          "internalType": "uint256",
          "name": "numRefunded",
          "type": "uint256"
        }
      ],
      "name": "SlotsRefunded",
      "type": "event"
    },
    {
      "anonymous": false,
      "inputs": [
        {
          "indexed": false,
          "internalType": "address",
          "name": "",
          "type": "address"
        }
      ],
      "name": "TreasuryAddressChanged",
      "type": "event"
    },
    {
      "anonymous": false,
      "inputs": [
        {
          "indexed": false,
          "internalType": "address",
          "name": "account",
          "type": "address"
        }
      ],
      "name": "Unpaused",
      "type": "event"
    },
    {
      "inputs": [],
      "name": "DEFAULT_ADMIN_ROLE",
      "outputs": [
        {
          "internalType": "bytes32",
          "name": "",
          "type": "bytes32"
        }
      ],
      "stateMutability": "view",
      "type": "function"
    },
    {
      "inputs": [],
      "name": "TREASURY_ROLE",
      "outputs": [
        {
          "internalType": "bytes32",
          "name": "",
          "type": "bytes32"
        }
      ],
      "stateMutability": "view",
      "type": "function"
    },
    {
      "inputs": [
        {
          "internalType": "address",
          "name": "",
          "type": "address"
        }
      ],
      "name": "addressToSlotsOwner",
      "outputs": [
        {
          "internalType": "uint256",
          "name": "noOfSlots",
          "type": "uint256"
        },
        {
          "internalType": "uint256",
          "name": "noOfSlotsBought",
          "type": "uint256"
        },
        {
          "internalType": "uint256",
          "name": "enteredRound",
          "type": "uint256"
        }
      ],
      "stateMutability": "view",
      "type": "function"
    },
    {
      "inputs": [
        {
          "internalType": "address",
          "name": "newTreasuryAddress",
          "type": "address"
        }
      ],
      "name": "changeTreasuryAddress",
      "outputs": [],
      "stateMutability": "nonpayable",
      "type": "function"
    },
    {
      "inputs": [],
      "name": "countDown",
      "outputs": [
        {
          "internalType": "uint256",
          "name": "",
          "type": "uint256"
        }
      ],
      "stateMutability": "view",
      "type": "function"
    },
    {
      "inputs": [],
      "name": "currentPhase",
      "outputs": [
        {
          "internalType": "int256",
          "name": "",
          "type": "int256"
        }
      ],
      "stateMutability": "view",
      "type": "function"
    },
    {
      "inputs": [
        {
          "internalType": "uint256",
          "name": "",
          "type": "uint256"
        }
      ],
      "name": "deletedSlots",
      "outputs": [
        {
          "internalType": "uint256",
          "name": "",
          "type": "uint256"
        }
      ],
      "stateMutability": "view",
      "type": "function"
    },
    {
      "inputs": [],
      "name": "disburseWinner",
      "outputs": [],
      "stateMutability": "nonpayable",
      "type": "function"
    },
    {
      "inputs": [],
      "name": "enterLockPeriod",
      "outputs": [],
      "stateMutability": "nonpayable",
      "type": "function"
    },
    {
      "inputs": [],
      "name": "exitLockPeriod",
      "outputs": [
        {
          "internalType": "bytes32",
          "name": "requestId",
          "type": "bytes32"
        }
      ],
      "stateMutability": "nonpayable",
      "type": "function"
    },
    {
      "inputs": [],
      "name": "getRandomNumber",
      "outputs": [
        {
          "internalType": "bytes32",
          "name": "requestId",
          "type": "bytes32"
        }
      ],
      "stateMutability": "nonpayable",
      "type": "function"
    },
    {
      "inputs": [
        {
          "internalType": "bytes32",
          "name": "role",
          "type": "bytes32"
        }
      ],
      "name": "getRoleAdmin",
      "outputs": [
        {
          "internalType": "bytes32",
          "name": "",
          "type": "bytes32"
        }
      ],
      "stateMutability": "view",
      "type": "function"
    },
    {
      "inputs": [],
      "name": "getSlotOwners",
      "outputs": [
        {
          "internalType": "address[]",
          "name": "",
          "type": "address[]"
        }
      ],
      "stateMutability": "view",
      "type": "function"
    },
    {
      "inputs": [
        {
          "internalType": "bytes32",
          "name": "role",
          "type": "bytes32"
        },
        {
          "internalType": "address",
          "name": "account",
          "type": "address"
        }
      ],
      "name": "grantRole",
      "outputs": [],
      "stateMutability": "nonpayable",
      "type": "function"
    },
    {
      "inputs": [
        {
          "internalType": "bytes32",
          "name": "role",
          "type": "bytes32"
        },
        {
          "internalType": "address",
          "name": "account",
          "type": "address"
        }
      ],
      "name": "hasRole",
      "outputs": [
        {
          "internalType": "bool",
          "name": "",
          "type": "bool"
        }
      ],
      "stateMutability": "view",
      "type": "function"
    },
    {
      "inputs": [],
      "name": "isStopped",
      "outputs": [
        {
          "internalType": "uint256",
          "name": "",
          "type": "uint256"
        }
      ],
      "stateMutability": "view",
      "type": "function"
    },
    {
      "inputs": [],
      "name": "nftContract",
      "outputs": [
        {
          "internalType": "address",
          "name": "",
          "type": "address"
        }
      ],
      "stateMutability": "view",
      "type": "function"
    },
    {
      "inputs": [],
      "name": "nftID",
      "outputs": [
        {
          "internalType": "uint256",
          "name": "",
          "type": "uint256"
        }
      ],
      "stateMutability": "view",
      "type": "function"
    },
    {
      "inputs": [],
      "name": "nftOwned",
      "outputs": [
        {
          "internalType": "bool",
          "name": "",
          "type": "bool"
        }
      ],
      "stateMutability": "view",
      "type": "function"
    },
    {
      "inputs": [],
      "name": "noOfRounds",
      "outputs": [
        {
          "internalType": "uint256",
          "name": "",
          "type": "uint256"
        }
      ],
      "stateMutability": "view",
      "type": "function"
    },
    {
      "inputs": [],
      "name": "numSlotsAvailable",
      "outputs": [
        {
          "internalType": "uint256",
          "name": "",
          "type": "uint256"
        }
      ],
      "stateMutability": "view",
      "type": "function"
    },
    {
      "inputs": [],
      "name": "numSlotsFilled",
      "outputs": [
        {
          "internalType": "uint256",
          "name": "",
          "type": "uint256"
        }
      ],
      "stateMutability": "view",
      "type": "function"
    },
    {
      "inputs": [
        {
          "internalType": "address",
          "name": "operator",
          "type": "address"
        },
        {
          "internalType": "address",
          "name": "from",
          "type": "address"
        },
        {
          "internalType": "uint256",
          "name": "tokenId",
          "type": "uint256"
        },
        {
          "internalType": "bytes",
          "name": "data",
          "type": "bytes"
        }
      ],
      "name": "onERC721Received",
      "outputs": [
        {
          "internalType": "bytes4",
          "name": "",
          "type": "bytes4"
        }
      ],
      "stateMutability": "nonpayable",
      "type": "function"
    },
    {
      "inputs": [],
      "name": "paused",
      "outputs": [
        {
          "internalType": "bool",
          "name": "",
          "type": "bool"
        }
      ],
      "stateMutability": "view",
      "type": "function"
    },
    {
      "inputs": [
        {
          "internalType": "uint256",
          "name": "_numSlots",
          "type": "uint256"
        },
        {
          "internalType": "uint256",
          "name": "_method",
          "type": "uint256"
        }
      ],
      "name": "purchaseSlot",
      "outputs": [],
      "stateMutability": "payable",
      "type": "function"
    },
    {
      "inputs": [],
      "name": "randomResult",
      "outputs": [
        {
          "internalType": "uint256",
          "name": "",
          "type": "uint256"
        }
      ],
      "stateMutability": "view",
      "type": "function"
    },
    {
      "inputs": [],
      "name": "randomResultRequested",
      "outputs": [
        {
          "internalType": "bool",
          "name": "",
          "type": "bool"
        }
      ],
      "stateMutability": "view",
      "type": "function"
    },
    {
      "inputs": [
        {
          "internalType": "bytes32",
          "name": "requestId",
          "type": "bytes32"
        },
        {
          "internalType": "uint256",
          "name": "randomness",
          "type": "uint256"
        }
      ],
      "name": "rawFulfillRandomness",
      "outputs": [],
      "stateMutability": "nonpayable",
      "type": "function"
    },
    {
      "inputs": [
        {
          "internalType": "uint256[]",
          "name": "deleteIndices",
          "type": "uint256[]"
        }
      ],
      "name": "refundSlot",
      "outputs": [],
      "stateMutability": "nonpayable",
      "type": "function"
    },
    {
      "inputs": [
        {
          "internalType": "bytes32",
          "name": "role",
          "type": "bytes32"
        },
        {
          "internalType": "address",
          "name": "account",
          "type": "address"
        }
      ],
      "name": "renounceRole",
      "outputs": [],
      "stateMutability": "nonpayable",
      "type": "function"
    },
    {
      "inputs": [
        {
          "internalType": "bytes32",
          "name": "role",
          "type": "bytes32"
        },
        {
          "internalType": "address",
          "name": "account",
          "type": "address"
        }
      ],
      "name": "revokeRole",
      "outputs": [],
      "stateMutability": "nonpayable",
      "type": "function"
    },
    {
      "inputs": [
        {
          "internalType": "uint256",
          "name": "",
          "type": "uint256"
        }
      ],
      "name": "slotOwners",
      "outputs": [
        {
          "internalType": "address",
          "name": "",
          "type": "address"
        }
      ],
      "stateMutability": "view",
      "type": "function"
    },
    {
      "inputs": [],
      "name": "slotPrice",
      "outputs": [
        {
          "internalType": "uint256",
          "name": "",
          "type": "uint256"
        }
      ],
      "stateMutability": "view",
      "type": "function"
    },
    {
      "inputs": [],
      "name": "stopTheRaffle",
      "outputs": [],
      "stateMutability": "nonpayable",
      "type": "function"
    },
    {
      "inputs": [
        {
          "internalType": "bytes4",
          "name": "interfaceId",
          "type": "bytes4"
        }
      ],
      "name": "supportsInterface",
      "outputs": [
        {
          "internalType": "bool",
          "name": "",
          "type": "bool"
        }
      ],
      "stateMutability": "view",
      "type": "function"
    },
    {
      "inputs": [],
      "name": "treasury",
      "outputs": [
        {
          "internalType": "address",
          "name": "",
          "type": "address"
        }
      ],
      "stateMutability": "view",
      "type": "function"
    }
  ],
  "bytecode": "61010060405260006007819055600019600855600a819055600c819055600d805460ff19908116909155600e919091556012805490911690553480156200004557600080fd5b5060405162002860380380620028608339810160408190526200006891620001d7565b6001600160a01b0380851660a05283166080526002805460ff19169055620000926000336200010a565b620000be7fe1dcbdb91df27212a29bc27177c840cf2f819ecf2187432e1fac86c2dd5dfca98a6200010a565b600680546001600160a01b03199081166001600160a01b039a8b161790915560c095909552600580549095169690971695909517909255505060e091909152600355600455506200026e565b6200011682826200011a565b5050565b6000828152602081815260408083206001600160a01b038516845290915290205460ff1662000116576000828152602081815260408083206001600160a01b03851684529091529020805460ff19166001179055620001763390565b6001600160a01b0316816001600160a01b0316837f2f8788117e7eff1d82e926ec794901d17c78024a50270940304540a733656f0d60405160405180910390a45050565b80516001600160a01b0381168114620001d257600080fd5b919050565b60008060008060008060008060006101208a8c031215620001f757600080fd5b620002028a620001ba565b98506200021260208b01620001ba565b97506200022260408b01620001ba565b965060608a0151955060808a015194506200024060a08b01620001ba565b93506200025060c08b01620001ba565b925060e08a015191506101008a015190509295985092959850929598565b60805160a05160c05160e0516125a3620002bd600039600081816118da01526119f7015260006119d60152600081816113d60152611d790152600081816119040152611d4a01526125a36000f3fe60806040526004361061020f5760003560e01c80635d1cf7ea116101185780639cc1f301116100a0578063ce16097e1161006f578063ce16097e146105e1578063d11a57ec14610601578063d547741f14610635578063d56d229d14610655578063dbdff2c11461067557600080fd5b80639cc1f30114610576578063a217fddf14610596578063a6f353f0146105ab578063c3994752146105cb57600080fd5b8063796fc402116100e7578063796fc4021461049d57806391d14854146104f45780639451b9811461051457806394985ddd146105365780639a23ec191461055657600080fd5b80635d1cf7ea146104235780635fcbd5b61461043957806361d027b31461044f5780637489ce481461048757600080fd5b80632efcd76f1161019b5780633912d4661161016a5780633912d466146103b05780633f683b6a146103c557806342619f66146103db57806347984f2c146103f15780635c975abb1461040b57600080fd5b80632efcd76f146103455780632f2ff15d1461035b57806331f94d191461037b57806336568abe1461039057600080fd5b806314d287a4116101e257806314d287a414610298578063150b7a02146102ad57806315cc7b2a146102e65780631a8cef9a14610300578063248a9ca31461031557600080fd5b806301ffc9a71461021457806304e0465614610249578063055ad42e1461026d5780630ca098b214610283575b600080fd5b34801561022057600080fd5b5061023461022f36600461206c565b61068a565b60405190151581526020015b60405180910390f35b34801561025557600080fd5b5061025f60035481565b604051908152602001610240565b34801561027957600080fd5b5061025f60085481565b34801561028f57600080fd5b5061025f6106c1565b6102ab6102a6366004612096565b6107e7565b005b3480156102b957600080fd5b506102cd6102c83660046120d4565b610d30565b6040516001600160e01b03199091168152602001610240565b3480156102f257600080fd5b506012546102349060ff1681565b34801561030c57600080fd5b506102ab610e5e565b34801561032157600080fd5b5061025f61033036600461216f565b60009081526020819052604090206001015490565b34801561035157600080fd5b5061025f60075481565b34801561036757600080fd5b506102ab610376366004612188565b611126565b34801561038757600080fd5b506102ab611151565b34801561039c57600080fd5b506102ab6103ab366004612188565b611236565b3480156103bc57600080fd5b506102ab6112b4565b3480156103d157600080fd5b5061025f600a5481565b3480156103e757600080fd5b5061025f600c5481565b3480156103fd57600080fd5b50600d546102349060ff1681565b34801561041757600080fd5b5060025460ff16610234565b34801561042f57600080fd5b5061025f600e5481565b34801561044557600080fd5b5061025f60095481565b34801561045b57600080fd5b5060065461046f906001600160a01b031681565b6040516001600160a01b039091168152602001610240565b34801561049357600080fd5b5061025f60045481565b3480156104a957600080fd5b506104d96104b83660046121b4565b60116020526000908152604090208054600182015460029092015490919083565b60408051938452602084019290925290820152606001610240565b34801561050057600080fd5b5061023461050f366004612188565b611340565b34801561052057600080fd5b50610529611369565b60405161024091906121cf565b34801561054257600080fd5b506102ab610551366004612096565b6113cb565b34801561056257600080fd5b506102ab61057136600461221c565b611449565b34801561058257600080fd5b5061025f61059136600461216f565b61177b565b3480156105a257600080fd5b5061025f600081565b3480156105b757600080fd5b506102ab6105c63660046121b4565b61179c565b3480156105d757600080fd5b5061025f600b5481565b3480156105ed57600080fd5b5061046f6105fc36600461216f565b611872565b34801561060d57600080fd5b5061025f7fe1dcbdb91df27212a29bc27177c840cf2f819ecf2187432e1fac86c2dd5dfca981565b34801561064157600080fd5b506102ab610650366004612188565b61189c565b34801561066157600080fd5b5060055461046f906001600160a01b031681565b34801561068157600080fd5b5061025f6118c2565b60006001600160e01b03198216637965db0b60e01b14806106bb57506301ffc9a760e01b6001600160e01b03198316145b92915050565b6000806106ce8133611a20565b60025460ff1661071c5760405162461bcd60e51b815260206004820152601460248201527314185d5cd8589b194e881b9bdd081c185d5cd95960621b60448201526064015b60405180910390fd5b60085460011461077a5760405162461bcd60e51b8152602060048201526024808201527f43616e206f6e6c792063616c6c2074686973206166746572206c6f636b2070656044820152631c9a5bd960e21b6064820152608401610713565b42600954116107cb5760405162461bcd60e51b815260206004820181905260248201527f436f6e7472616374206973207374696c6c20696e206c6f636b20706572696f646044820152606401610713565b6107d3611a84565b6000196008556107e1611b17565b91505090565b60025460ff161561080a5760405162461bcd60e51b815260040161071390612291565b6008541561085a5760405162461bcd60e51b815260206004820152601c60248201527f43616e6e6f742062757920647572696e67207468697320726f756e64000000006044820152606401610713565b600082116108aa5760405162461bcd60e51b815260206004820181905260248201527f526166666c653a2043616e6e6f74207075726368617365203020736c6f74732e6044820152606401610713565b60125460ff1615156001146108d15760405162461bcd60e51b8152600401610713906122bb565b600454600e54106109305760405162461bcd60e51b8152602060048201526024808201527f526166666c653a20416c6c20726166666c6520736c6f7473206172652066696c6044820152633632b21760e11b6064820152608401610713565b600d5460ff16156109a95760405162461bcd60e51b815260206004820152603a60248201527f526166666c653a2043616e6e6f7420707572636861736520736c6f742061667460448201527f65722077696e6e657220686173206265656e2063686f73656e2e0000000000006064820152608401610713565b6003546109b6908361231e565b341015806109c45750806001145b610a2d5760405162461bcd60e51b815260206004820152603460248201527f526166666c653a20496e73756666696369656e74204554482070726f7669646560448201527332103a3790383ab931b430b9b29039b637ba399760611b6064820152608401610713565b60075433600090815260116020526040902060020154108015610a79575033600090815260116020526040902060010154610a6a90600a90612353565b610a75906001612367565b8211155b80610a82575080155b610ae35760405162461bcd60e51b815260206004820152602c60248201527f526166666c653a2043616e6e6f7420696e6372656d656e7420736c6f7473206960448201526b1b881d1a1a5cc81c9bdd5b9960a21b6064820152608401610713565b600e54600454610af3919061237f565b821115610b595760405162461bcd60e51b815260206004820152602e60248201527f526166666c653a2052657175657374696e6720746f207075726368617365207460448201526d37b79036b0b73c9039b637ba399760911b6064820152608401610713565b60005b60105415610c0c57601080543391600f91610b799060019061237f565b81548110610b8957610b89612396565b906000526020600020015481548110610ba457610ba4612396565b9060005260206000200160006101000a8154816001600160a01b0302191690836001600160a01b031602179055506010805480610be357610be36123ac565b600190038181906000526020600020016000905590558080610c04906123c2565b915050610b5c565b82811015610c7e5760005b610c21828561237f565b811015610c7c57600f80546001810182556000919091527f8d1108e10bcb7c27dddfc02ed9d693a074039d026cf4ea4240b40f7d581ac8020180546001600160a01b0319163317905580610c74816123c2565b915050610c17565b505b82600e54610c8c9190612367565b600e553360009081526011602052604081208054859290610cae908490612367565b90915550506007543360009081526011602052604090206002015581610cf6573360009081526011602052604081206001018054859290610cf0908490612367565b90915550505b60405183815233907f86e01953521e8ca90cf9568ce180d715096931ef1c18c1343b19c53e5c6e63619060200160405180910390a2505050565b6005546000906001600160a01b03868116911614610dad5760405162461bcd60e51b815260206004820152603460248201527f526166666c653a20526166666c65206e6f7420696e697469617465642077697460448201527334103a3434b99027232a1031b7b73a3930b1ba1760611b6064820152608401610713565b600854600019148015610dc3575060125460ff16155b610e0f5760405162461bcd60e51b815260206004820181905260248201527f43616e6e6f742072656365697665204e465420617420746869732070686173656044820152606401610713565b600b849055600060088190556007805491610e29836123c2565b90915550610e3c90504262093a80612367565b600955506012805460ff19166001179055630a85bd0160e11b95945050505050565b60125460ff161515600114610edb5760405162461bcd60e51b815260206004820152603a60248201527f526166666c653a2043616e6e6f74206469737572627365204e465420746f207760448201527f696e6e657220776974686f757420686f6c64696e67204e46542e0000000000006064820152608401610713565b600d5460ff161515600114610f585760405162461bcd60e51b815260206004820152603f60248201527f526166666c653a2043616e6e6f7420646973627572736520746f2077696e6e6560448201527f7220776974686f757420686176696e6720636f6c6c6563746564206f6e652e006064820152608401610713565b600c54610fd75760405162461bcd60e51b815260206004820152604160248201527f526166666c653a20506c65617365207761697420666f7220436861696e6c696e60448201527f6b2056524620746f20757064617465207468652077696e6e65722066697273746064820152601760f91b608482015260a401610713565b600c5460005b600f805460009190610fef90856123dd565b81548110610fff57610fff612396565b6000918252602090912001546001600160a01b03161461105357600f805461102790846123dd565b8154811061103757611037612396565b6000918252602090912001546001600160a01b03169050611065565b61105e600183612367565b9150610fdd565b600554600b54604051632142170760e11b81523060048201526001600160a01b03848116602483015260448201929092529116906342842e0e90606401600060405180830381600087803b1580156110bc57600080fd5b505af11580156110d0573d6000803e3d6000fd5b50506012805460ff19908116909155600d8054909116905550506000600c8190556040516001600160a01b038316917fa2564fbe9f8e6077adcf46dfe7c571eae3b5a67375d138e992f66e4db4f9752691a25050565b6000828152602081905260409020600101546111428133611a20565b61114c8383611c05565b505050565b600061115d8133611a20565b600854156111bb5760405162461bcd60e51b815260206004820152602560248201527f43616e206f6e6c792063616c6c207468697320616674657220726166666c65206044820152641c9bdd5b9960da1b6064820152608401610713565b42600954116112165760405162461bcd60e51b815260206004820152602160248201527f436f6e7472616374206973207374696c6c20696e20726166666c6520726f756e6044820152601960fa1b6064820152608401610713565b60016008556112284262278d00612367565b600955611233611c89565b50565b6001600160a01b03811633146112a65760405162461bcd60e51b815260206004820152602f60248201527f416363657373436f6e74726f6c3a2063616e206f6e6c792072656e6f756e636560448201526e103937b632b9903337b91039b2b63360891b6064820152608401610713565b6112b08282611ce1565b5050565b60006112c08133611a20565b6001600a55600554600b54604051632142170760e11b815230600482015233602482015260448101919091526001600160a01b03909116906342842e0e90606401600060405180830381600087803b15801561131b57600080fd5b505af115801561132f573d6000803e3d6000fd5b50506012805460ff19169055505050565b6000918252602082815260408084206001600160a01b0393909316845291905290205460ff1690565b6060600f8054806020026020016040519081016040528092919081815260200182805480156113c157602002820191906000526020600020905b81546001600160a01b031681526001909101906020018083116113a3575b5050505050905090565b336001600160a01b037f000000000000000000000000000000000000000000000000000000000000000016146114435760405162461bcd60e51b815260206004820152601f60248201527f4f6e6c7920565246436f6f7264696e61746f722063616e2066756c66696c6c006044820152606401610713565b600c5550565b60025460ff161561146c5760405162461bcd60e51b815260040161071390612291565b600854158061147d5750600a546001145b6114da5760405162461bcd60e51b815260206004820152602860248201527f526166666c653a2043616e6e6f7420726566756e6420647572696e672074686960448201526739903937bab7321760c11b6064820152608401610713565b60125460ff161515600114806114f25750600a546001145b61150e5760405162461bcd60e51b8152600401610713906122bb565b336000908152601160205260409020600101548111156115815760405162461bcd60e51b815260206004820152602860248201527f526166666c653a204164647265737320646964206e6f74206275792074686573604482015267329039b637ba399760c11b6064820152608401610713565b6000805b828210156116a857600f548484848181106115a2576115a2612396565b9050602002013510156116965733600f8585858181106115c4576115c4612396565b90506020020135815481106115db576115db612396565b6000918252602090912001546001600160a01b03161415611696576000600f85858581811061160c5761160c612396565b905060200201358154811061162357611623612396565b9060005260206000200160006101000a8154816001600160a01b0302191690836001600160a01b03160217905550601084848481811061166557611665612396565b8354600180820186556000958652602095869020929095029390930135920191909155506116939082612367565b90505b816116a0816123c2565b925050611585565b60035433906108fc906116bb908461231e565b6040518115909202916000818181858888f193505050501580156116e3573d6000803e3d6000fd5b5080600e546116f2919061237f565b600e55336000908152601160205260408120805483929061171490849061237f565b9091555050336000908152601160205260408120600101805483929061173b90849061237f565b909155505060405181815233907fe8e3157b474707a4ad53aa38ca233ac428bb08f705eb304f0859d2a884c880029060200160405180910390a250505050565b6010818154811061178b57600080fd5b600091825260209091200154905081565b7fe1dcbdb91df27212a29bc27177c840cf2f819ecf2187432e1fac86c2dd5dfca96117c78133611a20565b6001600160a01b03821661181d5760405162461bcd60e51b815260206004820152601960248201527f4e6f6e207a65726f2061646472657373207265717569726564000000000000006044820152606401610713565b600680546001600160a01b0319166001600160a01b0384169081179091556040519081527f9073dfac663173e64aa95665faedae52e2246f9bcdd3890fbfaf6733b46bba139060200160405180910390a15050565b600f818154811061188257600080fd5b6000918252602090912001546001600160a01b0316905081565b6000828152602081905260409020600101546118b88133611a20565b61114c8383611ce1565b6040516370a0823160e01b81523060048201526000907f0000000000000000000000000000000000000000000000000000000000000000906001600160a01b037f000000000000000000000000000000000000000000000000000000000000000016906370a0823190602401602060405180830381865afa15801561194b573d6000803e3d6000fd5b505050506040513d601f19601f8201168201806040525081019061196f91906123f1565b10156119d15760405162461bcd60e51b815260206004820152602b60248201527f4e6f7420656e6f756768204c494e4b202d2066696c6c20636f6e74726163742060448201526a1dda5d1a0819985d58d95d60aa1b6064820152608401610713565b611a1b7f00000000000000000000000000000000000000000000000000000000000000007f0000000000000000000000000000000000000000000000000000000000000000611d46565b905090565b611a2a8282611340565b6112b057611a42816001600160a01b03166014611ec9565b611a4d836020611ec9565b604051602001611a5e92919061243a565b60408051601f198184030181529082905262461bcd60e51b8252610713916004016124db565b60025460ff16611acd5760405162461bcd60e51b815260206004820152601460248201527314185d5cd8589b194e881b9bdd081c185d5cd95960621b6044820152606401610713565b6002805460ff191690557f5db9ee0a495bf2e6ff9c91a7834c1ba4fdd244a5e8aa4e537bd38aeae4b073aa335b6040516001600160a01b03909116815260200160405180910390a1565b600080600e5411611b6a5760405162461bcd60e51b815260206004820152601b60248201527f526166666c653a204e6f20736c6f7473206172652066696c6c656400000000006044820152606401610713565b60125460ff161515600114611b915760405162461bcd60e51b8152600401610713906122bb565b600d5460ff1615611bf05760405162461bcd60e51b8152602060048201526024808201527f526166666c653a2043616e6e6f7420636f6c6c6563742077696e6e657220747760448201526334b1b29760e11b6064820152608401610713565b600d805460ff19166001179055611a1b6118c2565b611c0f8282611340565b6112b0576000828152602081815260408083206001600160a01b03851684529091529020805460ff19166001179055611c453390565b6001600160a01b0316816001600160a01b0316837f2f8788117e7eff1d82e926ec794901d17c78024a50270940304540a733656f0d60405160405180910390a45050565b60025460ff1615611cac5760405162461bcd60e51b815260040161071390612291565b6002805460ff191660011790557f62e78cea01bee320cd4e420270b5ea74000d11b0c9f74754ebdbfc544b05a258611afa3390565b611ceb8282611340565b156112b0576000828152602081815260408083206001600160a01b0385168085529252808320805460ff1916905551339285917ff6391f5c32d9c69d2a47ea670b442974b53935d1edc7fd64eb21e047a839171b9190a45050565b60007f00000000000000000000000000000000000000000000000000000000000000006001600160a01b0316634000aea07f000000000000000000000000000000000000000000000000000000000000000084866000604051602001611db6929190918252602082015260400190565b6040516020818303038152906040526040518463ffffffff1660e01b8152600401611de3939291906124ee565b6020604051808303816000875af1158015611e02573d6000803e3d6000fd5b505050506040513d601f19601f82011682018060405250810190611e26919061251e565b50600083815260016020818152604080842054815180840189905280830186905230606082015260808082018390528351808303909101815260a09091019092528151918301919091209387905290829052611e8191612367565b600085815260016020526040902055611ec18482604080516020808201949094528082019290925280518083038201815260609092019052805191012090565b949350505050565b60606000611ed883600261231e565b611ee3906002612367565b67ffffffffffffffff811115611efb57611efb612540565b6040519080825280601f01601f191660200182016040528015611f25576020820181803683370190505b509050600360fc1b81600081518110611f4057611f40612396565b60200101906001600160f81b031916908160001a905350600f60fb1b81600181518110611f6f57611f6f612396565b60200101906001600160f81b031916908160001a9053506000611f9384600261231e565b611f9e906001612367565b90505b6001811115612016576f181899199a1a9b1b9c1cb0b131b232b360811b85600f1660108110611fd257611fd2612396565b1a60f81b828281518110611fe857611fe8612396565b60200101906001600160f81b031916908160001a90535060049490941c9361200f81612556565b9050611fa1565b5083156120655760405162461bcd60e51b815260206004820181905260248201527f537472696e67733a20686578206c656e67746820696e73756666696369656e746044820152606401610713565b9392505050565b60006020828403121561207e57600080fd5b81356001600160e01b03198116811461206557600080fd5b600080604083850312156120a957600080fd5b50508035926020909101359150565b80356001600160a01b03811681146120cf57600080fd5b919050565b6000806000806000608086880312156120ec57600080fd5b6120f5866120b8565b9450612103602087016120b8565b935060408601359250606086013567ffffffffffffffff8082111561212757600080fd5b818801915088601f83011261213b57600080fd5b81358181111561214a57600080fd5b89602082850101111561215c57600080fd5b9699959850939650602001949392505050565b60006020828403121561218157600080fd5b5035919050565b6000806040838503121561219b57600080fd5b823591506121ab602084016120b8565b90509250929050565b6000602082840312156121c657600080fd5b612065826120b8565b6020808252825182820181905260009190848201906040850190845b818110156122105783516001600160a01b0316835292840192918401916001016121eb565b50909695505050505050565b6000806020838503121561222f57600080fd5b823567ffffffffffffffff8082111561224757600080fd5b818501915085601f83011261225b57600080fd5b81358181111561226a57600080fd5b8660208260051b850101111561227f57600080fd5b60209290920196919550909350505050565b60208082526010908201526f14185d5cd8589b194e881c185d5cd95960821b604082015260600190565b6020808252602d908201527f526166666c653a20436f6e747261637420646f6573206e6f74206f776e20726160408201526c33333632b0b136329027232a1760991b606082015260800190565b634e487b7160e01b600052601160045260246000fd5b600081600019048311821515161561233857612338612308565b500290565b634e487b7160e01b600052601260045260246000fd5b6000826123625761236261233d565b500490565b6000821982111561237a5761237a612308565b500190565b60008282101561239157612391612308565b500390565b634e487b7160e01b600052603260045260246000fd5b634e487b7160e01b600052603160045260246000fd5b60006000198214156123d6576123d6612308565b5060010190565b6000826123ec576123ec61233d565b500690565b60006020828403121561240357600080fd5b5051919050565b60005b8381101561242557818101518382015260200161240d565b83811115612434576000848401525b50505050565b7f416363657373436f6e74726f6c3a206163636f756e742000000000000000000081526000835161247281601785016020880161240a565b7001034b99036b4b9b9b4b733903937b6329607d1b60179184019182015283516124a381602884016020880161240a565b01602801949350505050565b600081518084526124c781602086016020860161240a565b601f01601f19169290920160200192915050565b60208152600061206560208301846124af565b60018060a01b038416815282602082015260606040820152600061251560608301846124af565b95945050505050565b60006020828403121561253057600080fd5b8151801515811461206557600080fd5b634e487b7160e01b600052604160045260246000fd5b60008161256557612565612308565b50600019019056fea26469706673582212207a589db1fa7be09bf0d8e3f25e86dd23f00e80b22fb8dd71bc4a928c6bfa736f64736f6c634300080a0033",
  "bytecodeSha1": "e0be42df9db588d006551444522940fd0a7d3129",
  "compiler": {
    "evm_version": "istanbul",
    "optimizer": {
      "enabled": true,
      "runs": 200
    },
    "version": "0.8.10+commit.fc410830"
  },
  "contractName": "Raffle",
  "language": "Solidity",
  "natspec": {
    "author": "merkle-groot",
    "details": "Raffle Contract",
    "kind": "dev",
    "methods": {
      "changeTreasuryAddress(address)": {
        "details": "Function that allows changing the treasury address",
        "notice": "Can only be called by the owner of the contract",
        "params": {
          "newTreasuryAddress": "The new address to which the collected fees will be spent"
        }
      },
      "disburseWinner()": {
        "notice": "Disburses NFT to winner and raised raffle pool to owner"
      },
      "enterLockPeriod()": {
        "details": "Function to lock the funds and enter phase 1",
        "notice": "Can only be called by admin role"
      },
      "exitLockPeriod()": {
        "details": "Function to return -1 phase and call the chainlink oracle",
        "notice": "Can only be called by the admin role   "
      },
      "getRandomNumber()": {
        "notice": "Requests randomness "
      },
      "getRoleAdmin(bytes32)": {
        "details": "Returns the admin role that controls `role`. See {grantRole} and {revokeRole}. To change a role's admin, use {_setRoleAdmin}."
      },
      "grantRole(bytes32,address)": {
        "details": "Grants `role` to `account`. If `account` had not been already granted `role`, emits a {RoleGranted} event. Requirements: - the caller must have ``role``'s admin role."
      },
      "hasRole(bytes32,address)": {
        "details": "Returns `true` if `account` has been granted `role`."
      },
      "onERC721Received(address,address,uint256,bytes)": {
        "details": "Called by the NFT contract"
      },
      "paused()": {
        "details": "Returns true if the contract is paused, and false otherwise."
      },
      "purchaseSlot(uint256,uint256)": {
        "details": "Function used to buy slots or get free slots",
        "notice": "For getting free slots, the number must be calculated at front-end",
        "params": {
          "_method": "0 if buying, 1 if getting it for free",
          "_numSlots": "No of slots"
        }
      },
      "refundSlot(uint256[])": {
        "details": "Function to get refund from the raffle",
        "notice": "Only bought slots can be refunded",
        "params": {
          "deleteIndices": "Pass the array of indices to be deleted"
        }
      },
      "renounceRole(bytes32,address)": {
        "details": "Revokes `role` from the calling account. Roles are often managed via {grantRole} and {revokeRole}: this function's purpose is to provide a mechanism for accounts to lose their privileges if they are compromised (such as when a trusted device is misplaced). If the calling account had been granted `role`, emits a {RoleRevoked} event. Requirements: - the caller must be `account`."
      },
      "revokeRole(bytes32,address)": {
        "details": "Revokes `role` from `account`. If `account` had been granted `role`, emits a {RoleRevoked} event. Requirements: - the caller must have ``role``'s admin role."
      },
      "supportsInterface(bytes4)": {
        "details": "See {IERC165-supportsInterface}."
      }
    },
    "version": 1
  },
  "opcodes": "PUSH1 0x80 PUSH1 0x40 MSTORE PUSH1 0x4 CALLDATASIZE LT PUSH2 0x20F JUMPI PUSH1 0x0 CALLDATALOAD PUSH1 0xE0 SHR DUP1 PUSH4 0x5D1CF7EA GT PUSH2 0x118 JUMPI DUP1 PUSH4 0x9CC1F301 GT PUSH2 0xA0 JUMPI DUP1 PUSH4 0xCE16097E GT PUSH2 0x6F JUMPI DUP1 PUSH4 0xCE16097E EQ PUSH2 0x5E1 JUMPI DUP1 PUSH4 0xD11A57EC EQ PUSH2 0x601 JUMPI DUP1 PUSH4 0xD547741F EQ PUSH2 0x635 JUMPI DUP1 PUSH4 0xD56D229D EQ PUSH2 0x655 JUMPI DUP1 PUSH4 0xDBDFF2C1 EQ PUSH2 0x675 JUMPI PUSH1 0x0 DUP1 REVERT JUMPDEST DUP1 PUSH4 0x9CC1F301 EQ PUSH2 0x576 JUMPI DUP1 PUSH4 0xA217FDDF EQ PUSH2 0x596 JUMPI DUP1 PUSH4 0xA6F353F0 EQ PUSH2 0x5AB JUMPI DUP1 PUSH4 0xC3994752 EQ PUSH2 0x5CB JUMPI PUSH1 0x0 DUP1 REVERT JUMPDEST DUP1 PUSH4 0x796FC402 GT PUSH2 0xE7 JUMPI DUP1 PUSH4 0x796FC402 EQ PUSH2 0x49D JUMPI DUP1 PUSH4 0x91D14854 EQ PUSH2 0x4F4 JUMPI DUP1 PUSH4 0x9451B981 EQ PUSH2 0x514 JUMPI DUP1 PUSH4 0x94985DDD EQ PUSH2 0x536 JUMPI DUP1 PUSH4 0x9A23EC19 EQ PUSH2 0x556 JUMPI PUSH1 0x0 DUP1 REVERT JUMPDEST DUP1 PUSH4 0x5D1CF7EA EQ PUSH2 0x423 JUMPI DUP1 PUSH4 0x5FCBD5B6 EQ PUSH2 0x439 JUMPI DUP1 PUSH4 0x61D027B3 EQ PUSH2 0x44F JUMPI DUP1 PUSH4 0x7489CE48 EQ PUSH2 0x487 JUMPI PUSH1 0x0 DUP1 REVERT JUMPDEST DUP1 PUSH4 0x2EFCD76F GT PUSH2 0x19B JUMPI DUP1 PUSH4 0x3912D466 GT PUSH2 0x16A JUMPI DUP1 PUSH4 0x3912D466 EQ PUSH2 0x3B0 JUMPI DUP1 PUSH4 0x3F683B6A EQ PUSH2 0x3C5 JUMPI DUP1 PUSH4 0x42619F66 EQ PUSH2 0x3DB JUMPI DUP1 PUSH4 0x47984F2C EQ PUSH2 0x3F1 JUMPI DUP1 PUSH4 0x5C975ABB EQ PUSH2 0x40B JUMPI PUSH1 0x0 DUP1 REVERT JUMPDEST DUP1 PUSH4 0x2EFCD76F EQ PUSH2 0x345 JUMPI DUP1 PUSH4 0x2F2FF15D EQ PUSH2 0x35B JUMPI DUP1 PUSH4 0x31F94D19 EQ PUSH2 0x37B JUMPI DUP1 PUSH4 0x36568ABE EQ PUSH2 0x390 JUMPI PUSH1 0x0 DUP1 REVERT JUMPDEST DUP1 PUSH4 0x14D287A4 GT PUSH2 0x1E2 JUMPI DUP1 PUSH4 0x14D287A4 EQ PUSH2 0x298 JUMPI DUP1 PUSH4 0x150B7A02 EQ PUSH2 0x2AD JUMPI DUP1 PUSH4 0x15CC7B2A EQ PUSH2 0x2E6 JUMPI DUP1 PUSH4 0x1A8CEF9A EQ PUSH2 0x300 JUMPI DUP1 PUSH4 0x248A9CA3 EQ PUSH2 0x315 JUMPI PUSH1 0x0 DUP1 REVERT JUMPDEST DUP1 PUSH4 0x1FFC9A7 EQ PUSH2 0x214 JUMPI DUP1 PUSH4 0x4E04656 EQ PUSH2 0x249 JUMPI DUP1 PUSH4 0x55AD42E EQ PUSH2 0x26D JUMPI DUP1 PUSH4 0xCA098B2 EQ PUSH2 0x283 JUMPI JUMPDEST PUSH1 0x0 DUP1 REVERT JUMPDEST CALLVALUE DUP1 ISZERO PUSH2 0x220 JUMPI PUSH1 0x0 DUP1 REVERT JUMPDEST POP PUSH2 0x234 PUSH2 0x22F CALLDATASIZE PUSH1 0x4 PUSH2 0x206C JUMP JUMPDEST PUSH2 0x68A JUMP JUMPDEST PUSH1 0x40 MLOAD SWAP1 ISZERO ISZERO DUP2 MSTORE PUSH1 0x20 ADD JUMPDEST PUSH1 0x40 MLOAD DUP1 SWAP2 SUB SWAP1 RETURN JUMPDEST CALLVALUE DUP1 ISZERO PUSH2 0x255 JUMPI PUSH1 0x0 DUP1 REVERT JUMPDEST POP PUSH2 0x25F PUSH1 0x3 SLOAD DUP2 JUMP JUMPDEST PUSH1 0x40 MLOAD SWAP1 DUP2 MSTORE PUSH1 0x20 ADD PUSH2 0x240 JUMP JUMPDEST CALLVALUE DUP1 ISZERO PUSH2 0x279 JUMPI PUSH1 0x0 DUP1 REVERT JUMPDEST POP PUSH2 0x25F PUSH1 0x8 SLOAD DUP2 JUMP JUMPDEST CALLVALUE DUP1 ISZERO PUSH2 0x28F JUMPI PUSH1 0x0 DUP1 REVERT JUMPDEST POP PUSH2 0x25F PUSH2 0x6C1 JUMP JUMPDEST PUSH2 0x2AB PUSH2 0x2A6 CALLDATASIZE PUSH1 0x4 PUSH2 0x2096 JUMP JUMPDEST PUSH2 0x7E7 JUMP JUMPDEST STOP JUMPDEST CALLVALUE DUP1 ISZERO PUSH2 0x2B9 JUMPI PUSH1 0x0 DUP1 REVERT JUMPDEST POP PUSH2 0x2CD PUSH2 0x2C8 CALLDATASIZE PUSH1 0x4 PUSH2 0x20D4 JUMP JUMPDEST PUSH2 0xD30 JUMP JUMPDEST PUSH1 0x40 MLOAD PUSH1 0x1 PUSH1 0x1 PUSH1 0xE0 SHL SUB NOT SWAP1 SWAP2 AND DUP2 MSTORE PUSH1 0x20 ADD PUSH2 0x240 JUMP JUMPDEST CALLVALUE DUP1 ISZERO PUSH2 0x2F2 JUMPI PUSH1 0x0 DUP1 REVERT JUMPDEST POP PUSH1 0x12 SLOAD PUSH2 0x234 SWAP1 PUSH1 0xFF AND DUP2 JUMP JUMPDEST CALLVALUE DUP1 ISZERO PUSH2 0x30C JUMPI PUSH1 0x0 DUP1 REVERT JUMPDEST POP PUSH2 0x2AB PUSH2 0xE5E JUMP JUMPDEST CALLVALUE DUP1 ISZERO PUSH2 0x321 JUMPI PUSH1 0x0 DUP1 REVERT JUMPDEST POP PUSH2 0x25F PUSH2 0x330 CALLDATASIZE PUSH1 0x4 PUSH2 0x216F JUMP JUMPDEST PUSH1 0x0 SWAP1 DUP2 MSTORE PUSH1 0x20 DUP2 SWAP1 MSTORE PUSH1 0x40 SWAP1 KECCAK256 PUSH1 0x1 ADD SLOAD SWAP1 JUMP JUMPDEST CALLVALUE DUP1 ISZERO PUSH2 0x351 JUMPI PUSH1 0x0 DUP1 REVERT JUMPDEST POP PUSH2 0x25F PUSH1 0x7 SLOAD DUP2 JUMP JUMPDEST CALLVALUE DUP1 ISZERO PUSH2 0x367 JUMPI PUSH1 0x0 DUP1 REVERT JUMPDEST POP PUSH2 0x2AB PUSH2 0x376 CALLDATASIZE PUSH1 0x4 PUSH2 0x2188 JUMP JUMPDEST PUSH2 0x1126 JUMP JUMPDEST CALLVALUE DUP1 ISZERO PUSH2 0x387 JUMPI PUSH1 0x0 DUP1 REVERT JUMPDEST POP PUSH2 0x2AB PUSH2 0x1151 JUMP JUMPDEST CALLVALUE DUP1 ISZERO PUSH2 0x39C JUMPI PUSH1 0x0 DUP1 REVERT JUMPDEST POP PUSH2 0x2AB PUSH2 0x3AB CALLDATASIZE PUSH1 0x4 PUSH2 0x2188 JUMP JUMPDEST PUSH2 0x1236 JUMP JUMPDEST CALLVALUE DUP1 ISZERO PUSH2 0x3BC JUMPI PUSH1 0x0 DUP1 REVERT JUMPDEST POP PUSH2 0x2AB PUSH2 0x12B4 JUMP JUMPDEST CALLVALUE DUP1 ISZERO PUSH2 0x3D1 JUMPI PUSH1 0x0 DUP1 REVERT JUMPDEST POP PUSH2 0x25F PUSH1 0xA SLOAD DUP2 JUMP JUMPDEST CALLVALUE DUP1 ISZERO PUSH2 0x3E7 JUMPI PUSH1 0x0 DUP1 REVERT JUMPDEST POP PUSH2 0x25F PUSH1 0xC SLOAD DUP2 JUMP JUMPDEST CALLVALUE DUP1 ISZERO PUSH2 0x3FD JUMPI PUSH1 0x0 DUP1 REVERT JUMPDEST POP PUSH1 0xD SLOAD PUSH2 0x234 SWAP1 PUSH1 0xFF AND DUP2 JUMP JUMPDEST CALLVALUE DUP1 ISZERO PUSH2 0x417 JUMPI PUSH1 0x0 DUP1 REVERT JUMPDEST POP PUSH1 0x2 SLOAD PUSH1 0xFF AND PUSH2 0x234 JUMP JUMPDEST CALLVALUE DUP1 ISZERO PUSH2 0x42F JUMPI PUSH1 0x0 DUP1 REVERT JUMPDEST POP PUSH2 0x25F PUSH1 0xE SLOAD DUP2 JUMP JUMPDEST CALLVALUE DUP1 ISZERO PUSH2 0x445 JUMPI PUSH1 0x0 DUP1 REVERT JUMPDEST POP PUSH2 0x25F PUSH1 0x9 SLOAD DUP2 JUMP JUMPDEST CALLVALUE DUP1 ISZERO PUSH2 0x45B JUMPI PUSH1 0x0 DUP1 REVERT JUMPDEST POP PUSH1 0x6 SLOAD PUSH2 0x46F SWAP1 PUSH1 0x1 PUSH1 0x1 PUSH1 0xA0 SHL SUB AND DUP2 JUMP JUMPDEST PUSH1 0x40 MLOAD PUSH1 0x1 PUSH1 0x1 PUSH1 0xA0 SHL SUB SWAP1 SWAP2 AND DUP2 MSTORE PUSH1 0x20 ADD PUSH2 0x240 JUMP JUMPDEST CALLVALUE DUP1 ISZERO PUSH2 0x493 JUMPI PUSH1 0x0 DUP1 REVERT JUMPDEST POP PUSH2 0x25F PUSH1 0x4 SLOAD DUP2 JUMP JUMPDEST CALLVALUE DUP1 ISZERO PUSH2 0x4A9 JUMPI PUSH1 0x0 DUP1 REVERT JUMPDEST POP PUSH2 0x4D9 PUSH2 0x4B8 CALLDATASIZE PUSH1 0x4 PUSH2 0x21B4 JUMP JUMPDEST PUSH1 0x11 PUSH1 0x20 MSTORE PUSH1 0x0 SWAP1 DUP2 MSTORE PUSH1 0x40 SWAP1 KECCAK256 DUP1 SLOAD PUSH1 0x1 DUP3 ADD SLOAD PUSH1 0x2 SWAP1 SWAP3 ADD SLOAD SWAP1 SWAP2 SWAP1 DUP4 JUMP JUMPDEST PUSH1 0x40 DUP1 MLOAD SWAP4 DUP5 MSTORE PUSH1 0x20 DUP5 ADD SWAP3 SWAP1 SWAP3 MSTORE SWAP1 DUP3 ADD MSTORE PUSH1 0x60 ADD PUSH2 0x240 JUMP JUMPDEST CALLVALUE DUP1 ISZERO PUSH2 0x500 JUMPI PUSH1 0x0 DUP1 REVERT JUMPDEST POP PUSH2 0x234 PUSH2 0x50F CALLDATASIZE PUSH1 0x4 PUSH2 0x2188 JUMP JUMPDEST PUSH2 0x1340 JUMP JUMPDEST CALLVALUE DUP1 ISZERO PUSH2 0x520 JUMPI PUSH1 0x0 DUP1 REVERT JUMPDEST POP PUSH2 0x529 PUSH2 0x1369 JUMP JUMPDEST PUSH1 0x40 MLOAD PUSH2 0x240 SWAP2 SWAP1 PUSH2 0x21CF JUMP JUMPDEST CALLVALUE DUP1 ISZERO PUSH2 0x542 JUMPI PUSH1 0x0 DUP1 REVERT JUMPDEST POP PUSH2 0x2AB PUSH2 0x551 CALLDATASIZE PUSH1 0x4 PUSH2 0x2096 JUMP JUMPDEST PUSH2 0x13CB JUMP JUMPDEST CALLVALUE DUP1 ISZERO PUSH2 0x562 JUMPI PUSH1 0x0 DUP1 REVERT JUMPDEST POP PUSH2 0x2AB PUSH2 0x571 CALLDATASIZE PUSH1 0x4 PUSH2 0x221C JUMP JUMPDEST PUSH2 0x1449 JUMP JUMPDEST CALLVALUE DUP1 ISZERO PUSH2 0x582 JUMPI PUSH1 0x0 DUP1 REVERT JUMPDEST POP PUSH2 0x25F PUSH2 0x591 CALLDATASIZE PUSH1 0x4 PUSH2 0x216F JUMP JUMPDEST PUSH2 0x177B JUMP JUMPDEST CALLVALUE DUP1 ISZERO PUSH2 0x5A2 JUMPI PUSH1 0x0 DUP1 REVERT JUMPDEST POP PUSH2 0x25F PUSH1 0x0 DUP2 JUMP JUMPDEST CALLVALUE DUP1 ISZERO PUSH2 0x5B7 JUMPI PUSH1 0x0 DUP1 REVERT JUMPDEST POP PUSH2 0x2AB PUSH2 0x5C6 CALLDATASIZE PUSH1 0x4 PUSH2 0x21B4 JUMP JUMPDEST PUSH2 0x179C JUMP JUMPDEST CALLVALUE DUP1 ISZERO PUSH2 0x5D7 JUMPI PUSH1 0x0 DUP1 REVERT JUMPDEST POP PUSH2 0x25F PUSH1 0xB SLOAD DUP2 JUMP JUMPDEST CALLVALUE DUP1 ISZERO PUSH2 0x5ED JUMPI PUSH1 0x0 DUP1 REVERT JUMPDEST POP PUSH2 0x46F PUSH2 0x5FC CALLDATASIZE PUSH1 0x4 PUSH2 0x216F JUMP JUMPDEST PUSH2 0x1872 JUMP JUMPDEST CALLVALUE DUP1 ISZERO PUSH2 0x60D JUMPI PUSH1 0x0 DUP1 REVERT JUMPDEST POP PUSH2 0x25F PUSH32 0xE1DCBDB91DF27212A29BC27177C840CF2F819ECF2187432E1FAC86C2DD5DFCA9 DUP2 JUMP JUMPDEST CALLVALUE DUP1 ISZERO PUSH2 0x641 JUMPI PUSH1 0x0 DUP1 REVERT JUMPDEST POP PUSH2 0x2AB PUSH2 0x650 CALLDATASIZE PUSH1 0x4 PUSH2 0x2188 JUMP JUMPDEST PUSH2 0x189C JUMP JUMPDEST CALLVALUE DUP1 ISZERO PUSH2 0x661 JUMPI PUSH1 0x0 DUP1 REVERT JUMPDEST POP PUSH1 0x5 SLOAD PUSH2 0x46F SWAP1 PUSH1 0x1 PUSH1 0x1 PUSH1 0xA0 SHL SUB AND DUP2 JUMP JUMPDEST CALLVALUE DUP1 ISZERO PUSH2 0x681 JUMPI PUSH1 0x0 DUP1 REVERT JUMPDEST POP PUSH2 0x25F PUSH2 0x18C2 JUMP JUMPDEST PUSH1 0x0 PUSH1 0x1 PUSH1 0x1 PUSH1 0xE0 SHL SUB NOT DUP3 AND PUSH4 0x7965DB0B PUSH1 0xE0 SHL EQ DUP1 PUSH2 0x6BB JUMPI POP PUSH4 0x1FFC9A7 PUSH1 0xE0 SHL PUSH1 0x1 PUSH1 0x1 PUSH1 0xE0 SHL SUB NOT DUP4 AND EQ JUMPDEST SWAP3 SWAP2 POP POP JUMP JUMPDEST PUSH1 0x0 DUP1 PUSH2 0x6CE DUP2 CALLER PUSH2 0x1A20 JUMP JUMPDEST PUSH1 0x2 SLOAD PUSH1 0xFF AND PUSH2 0x71C JUMPI PUSH1 0x40 MLOAD PUSH3 0x461BCD PUSH1 0xE5 SHL DUP2 MSTORE PUSH1 0x20 PUSH1 0x4 DUP3 ADD MSTORE PUSH1 0x14 PUSH1 0x24 DUP3 ADD MSTORE PUSH20 0x14185D5CD8589B194E881B9BDD081C185D5CD959 PUSH1 0x62 SHL PUSH1 0x44 DUP3 ADD MSTORE PUSH1 0x64 ADD JUMPDEST PUSH1 0x40 MLOAD DUP1 SWAP2 SUB SWAP1 REVERT JUMPDEST PUSH1 0x8 SLOAD PUSH1 0x1 EQ PUSH2 0x77A JUMPI PUSH1 0x40 MLOAD PUSH3 0x461BCD PUSH1 0xE5 SHL DUP2 MSTORE PUSH1 0x20 PUSH1 0x4 DUP3 ADD MSTORE PUSH1 0x24 DUP1 DUP3 ADD MSTORE PUSH32 0x43616E206F6E6C792063616C6C2074686973206166746572206C6F636B207065 PUSH1 0x44 DUP3 ADD MSTORE PUSH4 0x1C9A5BD9 PUSH1 0xE2 SHL PUSH1 0x64 DUP3 ADD MSTORE PUSH1 0x84 ADD PUSH2 0x713 JUMP JUMPDEST TIMESTAMP PUSH1 0x9 SLOAD GT PUSH2 0x7CB JUMPI PUSH1 0x40 MLOAD PUSH3 0x461BCD PUSH1 0xE5 SHL DUP2 MSTORE PUSH1 0x20 PUSH1 0x4 DUP3 ADD DUP2 SWAP1 MSTORE PUSH1 0x24 DUP3 ADD MSTORE PUSH32 0x436F6E7472616374206973207374696C6C20696E206C6F636B20706572696F64 PUSH1 0x44 DUP3 ADD MSTORE PUSH1 0x64 ADD PUSH2 0x713 JUMP JUMPDEST PUSH2 0x7D3 PUSH2 0x1A84 JUMP JUMPDEST PUSH1 0x0 NOT PUSH1 0x8 SSTORE PUSH2 0x7E1 PUSH2 0x1B17 JUMP JUMPDEST SWAP2 POP POP SWAP1 JUMP JUMPDEST PUSH1 0x2 SLOAD PUSH1 0xFF AND ISZERO PUSH2 0x80A JUMPI PUSH1 0x40 MLOAD PUSH3 0x461BCD PUSH1 0xE5 SHL DUP2 MSTORE PUSH1 0x4 ADD PUSH2 0x713 SWAP1 PUSH2 0x2291 JUMP JUMPDEST PUSH1 0x8 SLOAD ISZERO PUSH2 0x85A JUMPI PUSH1 0x40 MLOAD PUSH3 0x461BCD PUSH1 0xE5 SHL DUP2 MSTORE PUSH1 0x20 PUSH1 0x4 DUP3 ADD MSTORE PUSH1 0x1C PUSH1 0x24 DUP3 ADD MSTORE PUSH32 0x43616E6E6F742062757920647572696E67207468697320726F756E6400000000 PUSH1 0x44 DUP3 ADD MSTORE PUSH1 0x64 ADD PUSH2 0x713 JUMP JUMPDEST PUSH1 0x0 DUP3 GT PUSH2 0x8AA JUMPI PUSH1 0x40 MLOAD PUSH3 0x461BCD PUSH1 0xE5 SHL DUP2 MSTORE PUSH1 0x20 PUSH1 0x4 DUP3 ADD DUP2 SWAP1 MSTORE PUSH1 0x24 DUP3 ADD MSTORE PUSH32 0x526166666C653A2043616E6E6F74207075726368617365203020736C6F74732E PUSH1 0x44 DUP3 ADD MSTORE PUSH1 0x64 ADD PUSH2 0x713 JUMP JUMPDEST PUSH1 0x12 SLOAD PUSH1 0xFF AND ISZERO ISZERO PUSH1 0x1 EQ PUSH2 0x8D1 JUMPI PUSH1 0x40 MLOAD PUSH3 0x461BCD PUSH1 0xE5 SHL DUP2 MSTORE PUSH1 0x4 ADD PUSH2 0x713 SWAP1 PUSH2 0x22BB JUMP JUMPDEST PUSH1 0x4 SLOAD PUSH1 0xE SLOAD LT PUSH2 0x930 JUMPI PUSH1 0x40 MLOAD PUSH3 0x461BCD PUSH1 0xE5 SHL DUP2 MSTORE PUSH1 0x20 PUSH1 0x4 DUP3 ADD MSTORE PUSH1 0x24 DUP1 DUP3 ADD MSTORE PUSH32 0x526166666C653A20416C6C20726166666C6520736C6F7473206172652066696C PUSH1 0x44 DUP3 ADD MSTORE PUSH4 0x3632B217 PUSH1 0xE1 SHL PUSH1 0x64 DUP3 ADD MSTORE PUSH1 0x84 ADD PUSH2 0x713 JUMP JUMPDEST PUSH1 0xD SLOAD PUSH1 0xFF AND ISZERO PUSH2 0x9A9 JUMPI PUSH1 0x40 MLOAD PUSH3 0x461BCD PUSH1 0xE5 SHL DUP2 MSTORE PUSH1 0x20 PUSH1 0x4 DUP3 ADD MSTORE PUSH1 0x3A PUSH1 0x24 DUP3 ADD MSTORE PUSH32 0x526166666C653A2043616E6E6F7420707572636861736520736C6F7420616674 PUSH1 0x44 DUP3 ADD MSTORE PUSH32 0x65722077696E6E657220686173206265656E2063686F73656E2E000000000000 PUSH1 0x64 DUP3 ADD MSTORE PUSH1 0x84 ADD PUSH2 0x713 JUMP JUMPDEST PUSH1 0x3 SLOAD PUSH2 0x9B6 SWAP1 DUP4 PUSH2 0x231E JUMP JUMPDEST CALLVALUE LT ISZERO DUP1 PUSH2 0x9C4 JUMPI POP DUP1 PUSH1 0x1 EQ JUMPDEST PUSH2 0xA2D JUMPI PUSH1 0x40 MLOAD PUSH3 0x461BCD PUSH1 0xE5 SHL DUP2 MSTORE PUSH1 0x20 PUSH1 0x4 DUP3 ADD MSTORE PUSH1 0x34 PUSH1 0x24 DUP3 ADD MSTORE PUSH32 0x526166666C653A20496E73756666696369656E74204554482070726F76696465 PUSH1 0x44 DUP3 ADD MSTORE PUSH20 0x32103A3790383AB931B430B9B29039B637BA3997 PUSH1 0x61 SHL PUSH1 0x64 DUP3 ADD MSTORE PUSH1 0x84 ADD PUSH2 0x713 JUMP JUMPDEST PUSH1 0x7 SLOAD CALLER PUSH1 0x0 SWAP1 DUP2 MSTORE PUSH1 0x11 PUSH1 0x20 MSTORE PUSH1 0x40 SWAP1 KECCAK256 PUSH1 0x2 ADD SLOAD LT DUP1 ISZERO PUSH2 0xA79 JUMPI POP CALLER PUSH1 0x0 SWAP1 DUP2 MSTORE PUSH1 0x11 PUSH1 0x20 MSTORE PUSH1 0x40 SWAP1 KECCAK256 PUSH1 0x1 ADD SLOAD PUSH2 0xA6A SWAP1 PUSH1 0xA SWAP1 PUSH2 0x2353 JUMP JUMPDEST PUSH2 0xA75 SWAP1 PUSH1 0x1 PUSH2 0x2367 JUMP JUMPDEST DUP3 GT ISZERO JUMPDEST DUP1 PUSH2 0xA82 JUMPI POP DUP1 ISZERO JUMPDEST PUSH2 0xAE3 JUMPI PUSH1 0x40 MLOAD PUSH3 0x461BCD PUSH1 0xE5 SHL DUP2 MSTORE PUSH1 0x20 PUSH1 0x4 DUP3 ADD MSTORE PUSH1 0x2C PUSH1 0x24 DUP3 ADD MSTORE PUSH32 0x526166666C653A2043616E6E6F7420696E6372656D656E7420736C6F74732069 PUSH1 0x44 DUP3 ADD MSTORE PUSH12 0x1B881D1A1A5CC81C9BDD5B99 PUSH1 0xA2 SHL PUSH1 0x64 DUP3 ADD MSTORE PUSH1 0x84 ADD PUSH2 0x713 JUMP JUMPDEST PUSH1 0xE SLOAD PUSH1 0x4 SLOAD PUSH2 0xAF3 SWAP2 SWAP1 PUSH2 0x237F JUMP JUMPDEST DUP3 GT ISZERO PUSH2 0xB59 JUMPI PUSH1 0x40 MLOAD PUSH3 0x461BCD PUSH1 0xE5 SHL DUP2 MSTORE PUSH1 0x20 PUSH1 0x4 DUP3 ADD MSTORE PUSH1 0x2E PUSH1 0x24 DUP3 ADD MSTORE PUSH32 0x526166666C653A2052657175657374696E6720746F2070757263686173652074 PUSH1 0x44 DUP3 ADD MSTORE PUSH14 0x37B79036B0B73C9039B637BA3997 PUSH1 0x91 SHL PUSH1 0x64 DUP3 ADD MSTORE PUSH1 0x84 ADD PUSH2 0x713 JUMP JUMPDEST PUSH1 0x0 JUMPDEST PUSH1 0x10 SLOAD ISZERO PUSH2 0xC0C JUMPI PUSH1 0x10 DUP1 SLOAD CALLER SWAP2 PUSH1 0xF SWAP2 PUSH2 0xB79 SWAP1 PUSH1 0x1 SWAP1 PUSH2 0x237F JUMP JUMPDEST DUP2 SLOAD DUP2 LT PUSH2 0xB89 JUMPI PUSH2 0xB89 PUSH2 0x2396 JUMP JUMPDEST SWAP1 PUSH1 0x0 MSTORE PUSH1 0x20 PUSH1 0x0 KECCAK256 ADD SLOAD DUP2 SLOAD DUP2 LT PUSH2 0xBA4 JUMPI PUSH2 0xBA4 PUSH2 0x2396 JUMP JUMPDEST SWAP1 PUSH1 0x0 MSTORE PUSH1 0x20 PUSH1 0x0 KECCAK256 ADD PUSH1 0x0 PUSH2 0x100 EXP DUP2 SLOAD DUP2 PUSH1 0x1 PUSH1 0x1 PUSH1 0xA0 SHL SUB MUL NOT AND SWAP1 DUP4 PUSH1 0x1 PUSH1 0x1 PUSH1 0xA0 SHL SUB AND MUL OR SWAP1 SSTORE POP PUSH1 0x10 DUP1 SLOAD DUP1 PUSH2 0xBE3 JUMPI PUSH2 0xBE3 PUSH2 0x23AC JUMP JUMPDEST PUSH1 0x1 SWAP1 SUB DUP2 DUP2 SWAP1 PUSH1 0x0 MSTORE PUSH1 0x20 PUSH1 0x0 KECCAK256 ADD PUSH1 0x0 SWAP1 SSTORE SWAP1 SSTORE DUP1 DUP1 PUSH2 0xC04 SWAP1 PUSH2 0x23C2 JUMP JUMPDEST SWAP2 POP POP PUSH2 0xB5C JUMP JUMPDEST DUP3 DUP2 LT ISZERO PUSH2 0xC7E JUMPI PUSH1 0x0 JUMPDEST PUSH2 0xC21 DUP3 DUP6 PUSH2 0x237F JUMP JUMPDEST DUP2 LT ISZERO PUSH2 0xC7C JUMPI PUSH1 0xF DUP1 SLOAD PUSH1 0x1 DUP2 ADD DUP3 SSTORE PUSH1 0x0 SWAP2 SWAP1 SWAP2 MSTORE PUSH32 0x8D1108E10BCB7C27DDDFC02ED9D693A074039D026CF4EA4240B40F7D581AC802 ADD DUP1 SLOAD PUSH1 0x1 PUSH1 0x1 PUSH1 0xA0 SHL SUB NOT AND CALLER OR SWAP1 SSTORE DUP1 PUSH2 0xC74 DUP2 PUSH2 0x23C2 JUMP JUMPDEST SWAP2 POP POP PUSH2 0xC17 JUMP JUMPDEST POP JUMPDEST DUP3 PUSH1 0xE SLOAD PUSH2 0xC8C SWAP2 SWAP1 PUSH2 0x2367 JUMP JUMPDEST PUSH1 0xE SSTORE CALLER PUSH1 0x0 SWAP1 DUP2 MSTORE PUSH1 0x11 PUSH1 0x20 MSTORE PUSH1 0x40 DUP2 KECCAK256 DUP1 SLOAD DUP6 SWAP3 SWAP1 PUSH2 0xCAE SWAP1 DUP5 SWAP1 PUSH2 0x2367 JUMP JUMPDEST SWAP1 SWAP2 SSTORE POP POP PUSH1 0x7 SLOAD CALLER PUSH1 0x0 SWAP1 DUP2 MSTORE PUSH1 0x11 PUSH1 0x20 MSTORE PUSH1 0x40 SWAP1 KECCAK256 PUSH1 0x2 ADD SSTORE DUP2 PUSH2 0xCF6 JUMPI CALLER PUSH1 0x0 SWAP1 DUP2 MSTORE PUSH1 0x11 PUSH1 0x20 MSTORE PUSH1 0x40 DUP2 KECCAK256 PUSH1 0x1 ADD DUP1 SLOAD DUP6 SWAP3 SWAP1 PUSH2 0xCF0 SWAP1 DUP5 SWAP1 PUSH2 0x2367 JUMP JUMPDEST SWAP1 SWAP2 SSTORE POP POP JUMPDEST PUSH1 0x40 MLOAD DUP4 DUP2 MSTORE CALLER SWAP1 PUSH32 0x86E01953521E8CA90CF9568CE180D715096931EF1C18C1343B19C53E5C6E6361 SWAP1 PUSH1 0x20 ADD PUSH1 0x40 MLOAD DUP1 SWAP2 SUB SWAP1 LOG2 POP POP POP JUMP JUMPDEST PUSH1 0x5 SLOAD PUSH1 0x0 SWAP1 PUSH1 0x1 PUSH1 0x1 PUSH1 0xA0 SHL SUB DUP7 DUP2 AND SWAP2 AND EQ PUSH2 0xDAD JUMPI PUSH1 0x40 MLOAD PUSH3 0x461BCD PUSH1 0xE5 SHL DUP2 MSTORE PUSH1 0x20 PUSH1 0x4 DUP3 ADD MSTORE PUSH1 0x34 PUSH1 0x24 DUP3 ADD MSTORE PUSH32 0x526166666C653A20526166666C65206E6F7420696E6974696174656420776974 PUSH1 0x44 DUP3 ADD MSTORE PUSH20 0x34103A3434B99027232A1031B7B73A3930B1BA17 PUSH1 0x61 SHL PUSH1 0x64 DUP3 ADD MSTORE PUSH1 0x84 ADD PUSH2 0x713 JUMP JUMPDEST PUSH1 0x8 SLOAD PUSH1 0x0 NOT EQ DUP1 ISZERO PUSH2 0xDC3 JUMPI POP PUSH1 0x12 SLOAD PUSH1 0xFF AND ISZERO JUMPDEST PUSH2 0xE0F JUMPI PUSH1 0x40 MLOAD PUSH3 0x461BCD PUSH1 0xE5 SHL DUP2 MSTORE PUSH1 0x20 PUSH1 0x4 DUP3 ADD DUP2 SWAP1 MSTORE PUSH1 0x24 DUP3 ADD MSTORE PUSH32 0x43616E6E6F742072656365697665204E46542061742074686973207068617365 PUSH1 0x44 DUP3 ADD MSTORE PUSH1 0x64 ADD PUSH2 0x713 JUMP JUMPDEST PUSH1 0xB DUP5 SWAP1 SSTORE PUSH1 0x0 PUSH1 0x8 DUP2 SWAP1 SSTORE PUSH1 0x7 DUP1 SLOAD SWAP2 PUSH2 0xE29 DUP4 PUSH2 0x23C2 JUMP JUMPDEST SWAP1 SWAP2 SSTORE POP PUSH2 0xE3C SWAP1 POP TIMESTAMP PUSH3 0x93A80 PUSH2 0x2367 JUMP JUMPDEST PUSH1 0x9 SSTORE POP PUSH1 0x12 DUP1 SLOAD PUSH1 0xFF NOT AND PUSH1 0x1 OR SWAP1 SSTORE PUSH4 0xA85BD01 PUSH1 0xE1 SHL SWAP6 SWAP5 POP POP POP POP POP JUMP JUMPDEST PUSH1 0x12 SLOAD PUSH1 0xFF AND ISZERO ISZERO PUSH1 0x1 EQ PUSH2 0xEDB JUMPI PUSH1 0x40 MLOAD PUSH3 0x461BCD PUSH1 0xE5 SHL DUP2 MSTORE PUSH1 0x20 PUSH1 0x4 DUP3 ADD MSTORE PUSH1 0x3A PUSH1 0x24 DUP3 ADD MSTORE PUSH32 0x526166666C653A2043616E6E6F74206469737572627365204E465420746F2077 PUSH1 0x44 DUP3 ADD MSTORE PUSH32 0x696E6E657220776974686F757420686F6C64696E67204E46542E000000000000 PUSH1 0x64 DUP3 ADD MSTORE PUSH1 0x84 ADD PUSH2 0x713 JUMP JUMPDEST PUSH1 0xD SLOAD PUSH1 0xFF AND ISZERO ISZERO PUSH1 0x1 EQ PUSH2 0xF58 JUMPI PUSH1 0x40 MLOAD PUSH3 0x461BCD PUSH1 0xE5 SHL DUP2 MSTORE PUSH1 0x20 PUSH1 0x4 DUP3 ADD MSTORE PUSH1 0x3F PUSH1 0x24 DUP3 ADD MSTORE PUSH32 0x526166666C653A2043616E6E6F7420646973627572736520746F2077696E6E65 PUSH1 0x44 DUP3 ADD MSTORE PUSH32 0x7220776974686F757420686176696E6720636F6C6C6563746564206F6E652E00 PUSH1 0x64 DUP3 ADD MSTORE PUSH1 0x84 ADD PUSH2 0x713 JUMP JUMPDEST PUSH1 0xC SLOAD PUSH2 0xFD7 JUMPI PUSH1 0x40 MLOAD PUSH3 0x461BCD PUSH1 0xE5 SHL DUP2 MSTORE PUSH1 0x20 PUSH1 0x4 DUP3 ADD MSTORE PUSH1 0x41 PUSH1 0x24 DUP3 ADD MSTORE PUSH32 0x526166666C653A20506C65617365207761697420666F7220436861696E6C696E PUSH1 0x44 DUP3 ADD MSTORE PUSH32 0x6B2056524620746F20757064617465207468652077696E6E6572206669727374 PUSH1 0x64 DUP3 ADD MSTORE PUSH1 0x17 PUSH1 0xF9 SHL PUSH1 0x84 DUP3 ADD MSTORE PUSH1 0xA4 ADD PUSH2 0x713 JUMP JUMPDEST PUSH1 0xC SLOAD PUSH1 0x0 JUMPDEST PUSH1 0xF DUP1 SLOAD PUSH1 0x0 SWAP2 SWAP1 PUSH2 0xFEF SWAP1 DUP6 PUSH2 0x23DD JUMP JUMPDEST DUP2 SLOAD DUP2 LT PUSH2 0xFFF JUMPI PUSH2 0xFFF PUSH2 0x2396 JUMP JUMPDEST PUSH1 0x0 SWAP2 DUP3 MSTORE PUSH1 0x20 SWAP1 SWAP2 KECCAK256 ADD SLOAD PUSH1 0x1 PUSH1 0x1 PUSH1 0xA0 SHL SUB AND EQ PUSH2 0x1053 JUMPI PUSH1 0xF DUP1 SLOAD PUSH2 0x1027 SWAP1 DUP5 PUSH2 0x23DD JUMP JUMPDEST DUP2 SLOAD DUP2 LT PUSH2 0x1037 JUMPI PUSH2 0x1037 PUSH2 0x2396 JUMP JUMPDEST PUSH1 0x0 SWAP2 DUP3 MSTORE PUSH1 0x20 SWAP1 SWAP2 KECCAK256 ADD SLOAD PUSH1 0x1 PUSH1 0x1 PUSH1 0xA0 SHL SUB AND SWAP1 POP PUSH2 0x1065 JUMP JUMPDEST PUSH2 0x105E PUSH1 0x1 DUP4 PUSH2 0x2367 JUMP JUMPDEST SWAP2 POP PUSH2 0xFDD JUMP JUMPDEST PUSH1 0x5 SLOAD PUSH1 0xB SLOAD PUSH1 0x40 MLOAD PUSH4 0x21421707 PUSH1 0xE1 SHL DUP2 MSTORE ADDRESS PUSH1 0x4 DUP3 ADD MSTORE PUSH1 0x1 PUSH1 0x1 PUSH1 0xA0 SHL SUB DUP5 DUP2 AND PUSH1 0x24 DUP4 ADD MSTORE PUSH1 0x44 DUP3 ADD SWAP3 SWAP1 SWAP3 MSTORE SWAP2 AND SWAP1 PUSH4 0x42842E0E SWAP1 PUSH1 0x64 ADD PUSH1 0x0 PUSH1 0x40 MLOAD DUP1 DUP4 SUB DUP2 PUSH1 0x0 DUP8 DUP1 EXTCODESIZE ISZERO DUP1 ISZERO PUSH2 0x10BC JUMPI PUSH1 0x0 DUP1 REVERT JUMPDEST POP GAS CALL ISZERO DUP1 ISZERO PUSH2 0x10D0 JUMPI RETURNDATASIZE PUSH1 0x0 DUP1 RETURNDATACOPY RETURNDATASIZE PUSH1 0x0 REVERT JUMPDEST POP POP PUSH1 0x12 DUP1 SLOAD PUSH1 0xFF NOT SWAP1 DUP2 AND SWAP1 SWAP2 SSTORE PUSH1 0xD DUP1 SLOAD SWAP1 SWAP2 AND SWAP1 SSTORE POP POP PUSH1 0x0 PUSH1 0xC DUP2 SWAP1 SSTORE PUSH1 0x40 MLOAD PUSH1 0x1 PUSH1 0x1 PUSH1 0xA0 SHL SUB DUP4 AND SWAP2 PUSH32 0xA2564FBE9F8E6077ADCF46DFE7C571EAE3B5A67375D138E992F66E4DB4F97526 SWAP2 LOG2 POP POP JUMP JUMPDEST PUSH1 0x0 DUP3 DUP2 MSTORE PUSH1 0x20 DUP2 SWAP1 MSTORE PUSH1 0x40 SWAP1 KECCAK256 PUSH1 0x1 ADD SLOAD PUSH2 0x1142 DUP2 CALLER PUSH2 0x1A20 JUMP JUMPDEST PUSH2 0x114C DUP4 DUP4 PUSH2 0x1C05 JUMP JUMPDEST POP POP POP JUMP JUMPDEST PUSH1 0x0 PUSH2 0x115D DUP2 CALLER PUSH2 0x1A20 JUMP JUMPDEST PUSH1 0x8 SLOAD ISZERO PUSH2 0x11BB JUMPI PUSH1 0x40 MLOAD PUSH3 0x461BCD PUSH1 0xE5 SHL DUP2 MSTORE PUSH1 0x20 PUSH1 0x4 DUP3 ADD MSTORE PUSH1 0x25 PUSH1 0x24 DUP3 ADD MSTORE PUSH32 0x43616E206F6E6C792063616C6C207468697320616674657220726166666C6520 PUSH1 0x44 DUP3 ADD MSTORE PUSH5 0x1C9BDD5B99 PUSH1 0xDA SHL PUSH1 0x64 DUP3 ADD MSTORE PUSH1 0x84 ADD PUSH2 0x713 JUMP JUMPDEST TIMESTAMP PUSH1 0x9 SLOAD GT PUSH2 0x1216 JUMPI PUSH1 0x40 MLOAD PUSH3 0x461BCD PUSH1 0xE5 SHL DUP2 MSTORE PUSH1 0x20 PUSH1 0x4 DUP3 ADD MSTORE PUSH1 0x21 PUSH1 0x24 DUP3 ADD MSTORE PUSH32 0x436F6E7472616374206973207374696C6C20696E20726166666C6520726F756E PUSH1 0x44 DUP3 ADD MSTORE PUSH1 0x19 PUSH1 0xFA SHL PUSH1 0x64 DUP3 ADD MSTORE PUSH1 0x84 ADD PUSH2 0x713 JUMP JUMPDEST PUSH1 0x1 PUSH1 0x8 SSTORE PUSH2 0x1228 TIMESTAMP PUSH3 0x278D00 PUSH2 0x2367 JUMP JUMPDEST PUSH1 0x9 SSTORE PUSH2 0x1233 PUSH2 0x1C89 JUMP JUMPDEST POP JUMP JUMPDEST PUSH1 0x1 PUSH1 0x1 PUSH1 0xA0 SHL SUB DUP2 AND CALLER EQ PUSH2 0x12A6 JUMPI PUSH1 0x40 MLOAD PUSH3 0x461BCD PUSH1 0xE5 SHL DUP2 MSTORE PUSH1 0x20 PUSH1 0x4 DUP3 ADD MSTORE PUSH1 0x2F PUSH1 0x24 DUP3 ADD MSTORE PUSH32 0x416363657373436F6E74726F6C3A2063616E206F6E6C792072656E6F756E6365 PUSH1 0x44 DUP3 ADD MSTORE PUSH15 0x103937B632B9903337B91039B2B633 PUSH1 0x89 SHL PUSH1 0x64 DUP3 ADD MSTORE PUSH1 0x84 ADD PUSH2 0x713 JUMP JUMPDEST PUSH2 0x12B0 DUP3 DUP3 PUSH2 0x1CE1 JUMP JUMPDEST POP POP JUMP JUMPDEST PUSH1 0x0 PUSH2 0x12C0 DUP2 CALLER PUSH2 0x1A20 JUMP JUMPDEST PUSH1 0x1 PUSH1 0xA SSTORE PUSH1 0x5 SLOAD PUSH1 0xB SLOAD PUSH1 0x40 MLOAD PUSH4 0x21421707 PUSH1 0xE1 SHL DUP2 MSTORE ADDRESS PUSH1 0x4 DUP3 ADD MSTORE CALLER PUSH1 0x24 DUP3 ADD MSTORE PUSH1 0x44 DUP2 ADD SWAP2 SWAP1 SWAP2 MSTORE PUSH1 0x1 PUSH1 0x1 PUSH1 0xA0 SHL SUB SWAP1 SWAP2 AND SWAP1 PUSH4 0x42842E0E SWAP1 PUSH1 0x64 ADD PUSH1 0x0 PUSH1 0x40 MLOAD DUP1 DUP4 SUB DUP2 PUSH1 0x0 DUP8 DUP1 EXTCODESIZE ISZERO DUP1 ISZERO PUSH2 0x131B JUMPI PUSH1 0x0 DUP1 REVERT JUMPDEST POP GAS CALL ISZERO DUP1 ISZERO PUSH2 0x132F JUMPI RETURNDATASIZE PUSH1 0x0 DUP1 RETURNDATACOPY RETURNDATASIZE PUSH1 0x0 REVERT JUMPDEST POP POP PUSH1 0x12 DUP1 SLOAD PUSH1 0xFF NOT AND SWAP1 SSTORE POP POP POP JUMP JUMPDEST PUSH1 0x0 SWAP2 DUP3 MSTORE PUSH1 0x20 DUP3 DUP2 MSTORE PUSH1 0x40 DUP1 DUP5 KECCAK256 PUSH1 0x1 PUSH1 0x1 PUSH1 0xA0 SHL SUB SWAP4 SWAP1 SWAP4 AND DUP5 MSTORE SWAP2 SWAP1 MSTORE SWAP1 KECCAK256 SLOAD PUSH1 0xFF AND SWAP1 JUMP JUMPDEST PUSH1 0x60 PUSH1 0xF DUP1 SLOAD DUP1 PUSH1 0x20 MUL PUSH1 0x20 ADD PUSH1 0x40 MLOAD SWAP1 DUP2 ADD PUSH1 0x40 MSTORE DUP1 SWAP3 SWAP2 SWAP1 DUP2 DUP2 MSTORE PUSH1 0x20 ADD DUP3 DUP1 SLOAD DUP1 ISZERO PUSH2 0x13C1 JUMPI PUSH1 0x20 MUL DUP3 ADD SWAP2 SWAP1 PUSH1 0x0 MSTORE PUSH1 0x20 PUSH1 0x0 KECCAK256 SWAP1 JUMPDEST DUP2 SLOAD PUSH1 0x1 PUSH1 0x1 PUSH1 0xA0 SHL SUB AND DUP2 MSTORE PUSH1 0x1 SWAP1 SWAP2 ADD SWAP1 PUSH1 0x20 ADD DUP1 DUP4 GT PUSH2 0x13A3 JUMPI JUMPDEST POP POP POP POP POP SWAP1 POP SWAP1 JUMP JUMPDEST CALLER PUSH1 0x1 PUSH1 0x1 PUSH1 0xA0 SHL SUB PUSH32 0x0 AND EQ PUSH2 0x1443 JUMPI PUSH1 0x40 MLOAD PUSH3 0x461BCD PUSH1 0xE5 SHL DUP2 MSTORE PUSH1 0x20 PUSH1 0x4 DUP3 ADD MSTORE PUSH1 0x1F PUSH1 0x24 DUP3 ADD MSTORE PUSH32 0x4F6E6C7920565246436F6F7264696E61746F722063616E2066756C66696C6C00 PUSH1 0x44 DUP3 ADD MSTORE PUSH1 0x64 ADD PUSH2 0x713 JUMP JUMPDEST PUSH1 0xC SSTORE POP JUMP JUMPDEST PUSH1 0x2 SLOAD PUSH1 0xFF AND ISZERO PUSH2 0x146C JUMPI PUSH1 0x40 MLOAD PUSH3 0x461BCD PUSH1 0xE5 SHL DUP2 MSTORE PUSH1 0x4 ADD PUSH2 0x713 SWAP1 PUSH2 0x2291 JUMP JUMPDEST PUSH1 0x8 SLOAD ISZERO DUP1 PUSH2 0x147D JUMPI POP PUSH1 0xA SLOAD PUSH1 0x1 EQ JUMPDEST PUSH2 0x14DA JUMPI PUSH1 0x40 MLOAD PUSH3 0x461BCD PUSH1 0xE5 SHL DUP2 MSTORE PUSH1 0x20 PUSH1 0x4 DUP3 ADD MSTORE PUSH1 0x28 PUSH1 0x24 DUP3 ADD MSTORE PUSH32 0x526166666C653A2043616E6E6F7420726566756E6420647572696E6720746869 PUSH1 0x44 DUP3 ADD MSTORE PUSH8 0x39903937BAB73217 PUSH1 0xC1 SHL PUSH1 0x64 DUP3 ADD MSTORE PUSH1 0x84 ADD PUSH2 0x713 JUMP JUMPDEST PUSH1 0x12 SLOAD PUSH1 0xFF AND ISZERO ISZERO PUSH1 0x1 EQ DUP1 PUSH2 0x14F2 JUMPI POP PUSH1 0xA SLOAD PUSH1 0x1 EQ JUMPDEST PUSH2 0x150E JUMPI PUSH1 0x40 MLOAD PUSH3 0x461BCD PUSH1 0xE5 SHL DUP2 MSTORE PUSH1 0x4 ADD PUSH2 0x713 SWAP1 PUSH2 0x22BB JUMP JUMPDEST CALLER PUSH1 0x0 SWAP1 DUP2 MSTORE PUSH1 0x11 PUSH1 0x20 MSTORE PUSH1 0x40 SWAP1 KECCAK256 PUSH1 0x1 ADD SLOAD DUP2 GT ISZERO PUSH2 0x1581 JUMPI PUSH1 0x40 MLOAD PUSH3 0x461BCD PUSH1 0xE5 SHL DUP2 MSTORE PUSH1 0x20 PUSH1 0x4 DUP3 ADD MSTORE PUSH1 0x28 PUSH1 0x24 DUP3 ADD MSTORE PUSH32 0x526166666C653A204164647265737320646964206E6F74206275792074686573 PUSH1 0x44 DUP3 ADD MSTORE PUSH8 0x329039B637BA3997 PUSH1 0xC1 SHL PUSH1 0x64 DUP3 ADD MSTORE PUSH1 0x84 ADD PUSH2 0x713 JUMP JUMPDEST PUSH1 0x0 DUP1 JUMPDEST DUP3 DUP3 LT ISZERO PUSH2 0x16A8 JUMPI PUSH1 0xF SLOAD DUP5 DUP5 DUP5 DUP2 DUP2 LT PUSH2 0x15A2 JUMPI PUSH2 0x15A2 PUSH2 0x2396 JUMP JUMPDEST SWAP1 POP PUSH1 0x20 MUL ADD CALLDATALOAD LT ISZERO PUSH2 0x1696 JUMPI CALLER PUSH1 0xF DUP6 DUP6 DUP6 DUP2 DUP2 LT PUSH2 0x15C4 JUMPI PUSH2 0x15C4 PUSH2 0x2396 JUMP JUMPDEST SWAP1 POP PUSH1 0x20 MUL ADD CALLDATALOAD DUP2 SLOAD DUP2 LT PUSH2 0x15DB JUMPI PUSH2 0x15DB PUSH2 0x2396 JUMP JUMPDEST PUSH1 0x0 SWAP2 DUP3 MSTORE PUSH1 0x20 SWAP1 SWAP2 KECCAK256 ADD SLOAD PUSH1 0x1 PUSH1 0x1 PUSH1 0xA0 SHL SUB AND EQ ISZERO PUSH2 0x1696 JUMPI PUSH1 0x0 PUSH1 0xF DUP6 DUP6 DUP6 DUP2 DUP2 LT PUSH2 0x160C JUMPI PUSH2 0x160C PUSH2 0x2396 JUMP JUMPDEST SWAP1 POP PUSH1 0x20 MUL ADD CALLDATALOAD DUP2 SLOAD DUP2 LT PUSH2 0x1623 JUMPI PUSH2 0x1623 PUSH2 0x2396 JUMP JUMPDEST SWAP1 PUSH1 0x0 MSTORE PUSH1 0x20 PUSH1 0x0 KECCAK256 ADD PUSH1 0x0 PUSH2 0x100 EXP DUP2 SLOAD DUP2 PUSH1 0x1 PUSH1 0x1 PUSH1 0xA0 SHL SUB MUL NOT AND SWAP1 DUP4 PUSH1 0x1 PUSH1 0x1 PUSH1 0xA0 SHL SUB AND MUL OR SWAP1 SSTORE POP PUSH1 0x10 DUP5 DUP5 DUP5 DUP2 DUP2 LT PUSH2 0x1665 JUMPI PUSH2 0x1665 PUSH2 0x2396 JUMP JUMPDEST DUP4 SLOAD PUSH1 0x1 DUP1 DUP3 ADD DUP7 SSTORE PUSH1 0x0 SWAP6 DUP7 MSTORE PUSH1 0x20 SWAP6 DUP7 SWAP1 KECCAK256 SWAP3 SWAP1 SWAP6 MUL SWAP4 SWAP1 SWAP4 ADD CALLDATALOAD SWAP3 ADD SWAP2 SWAP1 SWAP2 SSTORE POP PUSH2 0x1693 SWAP1 DUP3 PUSH2 0x2367 JUMP JUMPDEST SWAP1 POP JUMPDEST DUP2 PUSH2 0x16A0 DUP2 PUSH2 0x23C2 JUMP JUMPDEST SWAP3 POP POP PUSH2 0x1585 JUMP JUMPDEST PUSH1 0x3 SLOAD CALLER SWAP1 PUSH2 0x8FC SWAP1 PUSH2 0x16BB SWAP1 DUP5 PUSH2 0x231E JUMP JUMPDEST PUSH1 0x40 MLOAD DUP2 ISZERO SWAP1 SWAP3 MUL SWAP2 PUSH1 0x0 DUP2 DUP2 DUP2 DUP6 DUP9 DUP9 CALL SWAP4 POP POP POP POP ISZERO DUP1 ISZERO PUSH2 0x16E3 JUMPI RETURNDATASIZE PUSH1 0x0 DUP1 RETURNDATACOPY RETURNDATASIZE PUSH1 0x0 REVERT JUMPDEST POP DUP1 PUSH1 0xE SLOAD PUSH2 0x16F2 SWAP2 SWAP1 PUSH2 0x237F JUMP JUMPDEST PUSH1 0xE SSTORE CALLER PUSH1 0x0 SWAP1 DUP2 MSTORE PUSH1 0x11 PUSH1 0x20 MSTORE PUSH1 0x40 DUP2 KECCAK256 DUP1 SLOAD DUP4 SWAP3 SWAP1 PUSH2 0x1714 SWAP1 DUP5 SWAP1 PUSH2 0x237F JUMP JUMPDEST SWAP1 SWAP2 SSTORE POP POP CALLER PUSH1 0x0 SWAP1 DUP2 MSTORE PUSH1 0x11 PUSH1 0x20 MSTORE PUSH1 0x40 DUP2 KECCAK256 PUSH1 0x1 ADD DUP1 SLOAD DUP4 SWAP3 SWAP1 PUSH2 0x173B SWAP1 DUP5 SWAP1 PUSH2 0x237F JUMP JUMPDEST SWAP1 SWAP2 SSTORE POP POP PUSH1 0x40 MLOAD DUP2 DUP2 MSTORE CALLER SWAP1 PUSH32 0xE8E3157B474707A4AD53AA38CA233AC428BB08F705EB304F0859D2A884C88002 SWAP1 PUSH1 0x20 ADD PUSH1 0x40 MLOAD DUP1 SWAP2 SUB SWAP1 LOG2 POP POP POP POP JUMP JUMPDEST PUSH1 0x10 DUP2 DUP2 SLOAD DUP2 LT PUSH2 0x178B JUMPI PUSH1 0x0 DUP1 REVERT JUMPDEST PUSH1 0x0 SWAP2 DUP3 MSTORE PUSH1 0x20 SWAP1 SWAP2 KECCAK256 ADD SLOAD SWAP1 POP DUP2 JUMP JUMPDEST PUSH32 0xE1DCBDB91DF27212A29BC27177C840CF2F819ECF2187432E1FAC86C2DD5DFCA9 PUSH2 0x17C7 DUP2 CALLER PUSH2 0x1A20 JUMP JUMPDEST PUSH1 0x1 PUSH1 0x1 PUSH1 0xA0 SHL SUB DUP3 AND PUSH2 0x181D JUMPI PUSH1 0x40 MLOAD PUSH3 0x461BCD PUSH1 0xE5 SHL DUP2 MSTORE PUSH1 0x20 PUSH1 0x4 DUP3 ADD MSTORE PUSH1 0x19 PUSH1 0x24 DUP3 ADD MSTORE PUSH32 0x4E6F6E207A65726F206164647265737320726571756972656400000000000000 PUSH1 0x44 DUP3 ADD MSTORE PUSH1 0x64 ADD PUSH2 0x713 JUMP JUMPDEST PUSH1 0x6 DUP1 SLOAD PUSH1 0x1 PUSH1 0x1 PUSH1 0xA0 SHL SUB NOT AND PUSH1 0x1 PUSH1 0x1 PUSH1 0xA0 SHL SUB DUP5 AND SWAP1 DUP2 OR SWAP1 SWAP2 SSTORE PUSH1 0x40 MLOAD SWAP1 DUP2 MSTORE PUSH32 0x9073DFAC663173E64AA95665FAEDAE52E2246F9BCDD3890FBFAF6733B46BBA13 SWAP1 PUSH1 0x20 ADD PUSH1 0x40 MLOAD DUP1 SWAP2 SUB SWAP1 LOG1 POP POP JUMP JUMPDEST PUSH1 0xF DUP2 DUP2 SLOAD DUP2 LT PUSH2 0x1882 JUMPI PUSH1 0x0 DUP1 REVERT JUMPDEST PUSH1 0x0 SWAP2 DUP3 MSTORE PUSH1 0x20 SWAP1 SWAP2 KECCAK256 ADD SLOAD PUSH1 0x1 PUSH1 0x1 PUSH1 0xA0 SHL SUB AND SWAP1 POP DUP2 JUMP JUMPDEST PUSH1 0x0 DUP3 DUP2 MSTORE PUSH1 0x20 DUP2 SWAP1 MSTORE PUSH1 0x40 SWAP1 KECCAK256 PUSH1 0x1 ADD SLOAD PUSH2 0x18B8 DUP2 CALLER PUSH2 0x1A20 JUMP JUMPDEST PUSH2 0x114C DUP4 DUP4 PUSH2 0x1CE1 JUMP JUMPDEST PUSH1 0x40 MLOAD PUSH4 0x70A08231 PUSH1 0xE0 SHL DUP2 MSTORE ADDRESS PUSH1 0x4 DUP3 ADD MSTORE PUSH1 0x0 SWAP1 PUSH32 0x0 SWAP1 PUSH1 0x1 PUSH1 0x1 PUSH1 0xA0 SHL SUB PUSH32 0x0 AND SWAP1 PUSH4 0x70A08231 SWAP1 PUSH1 0x24 ADD PUSH1 0x20 PUSH1 0x40 MLOAD DUP1 DUP4 SUB DUP2 DUP7 GAS STATICCALL ISZERO DUP1 ISZERO PUSH2 0x194B JUMPI RETURNDATASIZE PUSH1 0x0 DUP1 RETURNDATACOPY RETURNDATASIZE PUSH1 0x0 REVERT JUMPDEST POP POP POP POP PUSH1 0x40 MLOAD RETURNDATASIZE PUSH1 0x1F NOT PUSH1 0x1F DUP3 ADD AND DUP3 ADD DUP1 PUSH1 0x40 MSTORE POP DUP2 ADD SWAP1 PUSH2 0x196F SWAP2 SWAP1 PUSH2 0x23F1 JUMP JUMPDEST LT ISZERO PUSH2 0x19D1 JUMPI PUSH1 0x40 MLOAD PUSH3 0x461BCD PUSH1 0xE5 SHL DUP2 MSTORE PUSH1 0x20 PUSH1 0x4 DUP3 ADD MSTORE PUSH1 0x2B PUSH1 0x24 DUP3 ADD MSTORE PUSH32 0x4E6F7420656E6F756768204C494E4B202D2066696C6C20636F6E747261637420 PUSH1 0x44 DUP3 ADD MSTORE PUSH11 0x1DDA5D1A0819985D58D95D PUSH1 0xAA SHL PUSH1 0x64 DUP3 ADD MSTORE PUSH1 0x84 ADD PUSH2 0x713 JUMP JUMPDEST PUSH2 0x1A1B PUSH32 0x0 PUSH32 0x0 PUSH2 0x1D46 JUMP JUMPDEST SWAP1 POP SWAP1 JUMP JUMPDEST PUSH2 0x1A2A DUP3 DUP3 PUSH2 0x1340 JUMP JUMPDEST PUSH2 0x12B0 JUMPI PUSH2 0x1A42 DUP2 PUSH1 0x1 PUSH1 0x1 PUSH1 0xA0 SHL SUB AND PUSH1 0x14 PUSH2 0x1EC9 JUMP JUMPDEST PUSH2 0x1A4D DUP4 PUSH1 0x20 PUSH2 0x1EC9 JUMP JUMPDEST PUSH1 0x40 MLOAD PUSH1 0x20 ADD PUSH2 0x1A5E SWAP3 SWAP2 SWAP1 PUSH2 0x243A JUMP JUMPDEST PUSH1 0x40 DUP1 MLOAD PUSH1 0x1F NOT DUP2 DUP5 SUB ADD DUP2 MSTORE SWAP1 DUP3 SWAP1 MSTORE PUSH3 0x461BCD PUSH1 0xE5 SHL DUP3 MSTORE PUSH2 0x713 SWAP2 PUSH1 0x4 ADD PUSH2 0x24DB JUMP JUMPDEST PUSH1 0x2 SLOAD PUSH1 0xFF AND PUSH2 0x1ACD JUMPI PUSH1 0x40 MLOAD PUSH3 0x461BCD PUSH1 0xE5 SHL DUP2 MSTORE PUSH1 0x20 PUSH1 0x4 DUP3 ADD MSTORE PUSH1 0x14 PUSH1 0x24 DUP3 ADD MSTORE PUSH20 0x14185D5CD8589B194E881B9BDD081C185D5CD959 PUSH1 0x62 SHL PUSH1 0x44 DUP3 ADD MSTORE PUSH1 0x64 ADD PUSH2 0x713 JUMP JUMPDEST PUSH1 0x2 DUP1 SLOAD PUSH1 0xFF NOT AND SWAP1 SSTORE PUSH32 0x5DB9EE0A495BF2E6FF9C91A7834C1BA4FDD244A5E8AA4E537BD38AEAE4B073AA CALLER JUMPDEST PUSH1 0x40 MLOAD PUSH1 0x1 PUSH1 0x1 PUSH1 0xA0 SHL SUB SWAP1 SWAP2 AND DUP2 MSTORE PUSH1 0x20 ADD PUSH1 0x40 MLOAD DUP1 SWAP2 SUB SWAP1 LOG1 JUMP JUMPDEST PUSH1 0x0 DUP1 PUSH1 0xE SLOAD GT PUSH2 0x1B6A JUMPI PUSH1 0x40 MLOAD PUSH3 0x461BCD PUSH1 0xE5 SHL DUP2 MSTORE PUSH1 0x20 PUSH1 0x4 DUP3 ADD MSTORE PUSH1 0x1B PUSH1 0x24 DUP3 ADD MSTORE PUSH32 0x526166666C653A204E6F20736C6F7473206172652066696C6C65640000000000 PUSH1 0x44 DUP3 ADD MSTORE PUSH1 0x64 ADD PUSH2 0x713 JUMP JUMPDEST PUSH1 0x12 SLOAD PUSH1 0xFF AND ISZERO ISZERO PUSH1 0x1 EQ PUSH2 0x1B91 JUMPI PUSH1 0x40 MLOAD PUSH3 0x461BCD PUSH1 0xE5 SHL DUP2 MSTORE PUSH1 0x4 ADD PUSH2 0x713 SWAP1 PUSH2 0x22BB JUMP JUMPDEST PUSH1 0xD SLOAD PUSH1 0xFF AND ISZERO PUSH2 0x1BF0 JUMPI PUSH1 0x40 MLOAD PUSH3 0x461BCD PUSH1 0xE5 SHL DUP2 MSTORE PUSH1 0x20 PUSH1 0x4 DUP3 ADD MSTORE PUSH1 0x24 DUP1 DUP3 ADD MSTORE PUSH32 0x526166666C653A2043616E6E6F7420636F6C6C6563742077696E6E6572207477 PUSH1 0x44 DUP3 ADD MSTORE PUSH4 0x34B1B297 PUSH1 0xE1 SHL PUSH1 0x64 DUP3 ADD MSTORE PUSH1 0x84 ADD PUSH2 0x713 JUMP JUMPDEST PUSH1 0xD DUP1 SLOAD PUSH1 0xFF NOT AND PUSH1 0x1 OR SWAP1 SSTORE PUSH2 0x1A1B PUSH2 0x18C2 JUMP JUMPDEST PUSH2 0x1C0F DUP3 DUP3 PUSH2 0x1340 JUMP JUMPDEST PUSH2 0x12B0 JUMPI PUSH1 0x0 DUP3 DUP2 MSTORE PUSH1 0x20 DUP2 DUP2 MSTORE PUSH1 0x40 DUP1 DUP4 KECCAK256 PUSH1 0x1 PUSH1 0x1 PUSH1 0xA0 SHL SUB DUP6 AND DUP5 MSTORE SWAP1 SWAP2 MSTORE SWAP1 KECCAK256 DUP1 SLOAD PUSH1 0xFF NOT AND PUSH1 0x1 OR SWAP1 SSTORE PUSH2 0x1C45 CALLER SWAP1 JUMP JUMPDEST PUSH1 0x1 PUSH1 0x1 PUSH1 0xA0 SHL SUB AND DUP2 PUSH1 0x1 PUSH1 0x1 PUSH1 0xA0 SHL SUB AND DUP4 PUSH32 0x2F8788117E7EFF1D82E926EC794901D17C78024A50270940304540A733656F0D PUSH1 0x40 MLOAD PUSH1 0x40 MLOAD DUP1 SWAP2 SUB SWAP1 LOG4 POP POP JUMP JUMPDEST PUSH1 0x2 SLOAD PUSH1 0xFF AND ISZERO PUSH2 0x1CAC JUMPI PUSH1 0x40 MLOAD PUSH3 0x461BCD PUSH1 0xE5 SHL DUP2 MSTORE PUSH1 0x4 ADD PUSH2 0x713 SWAP1 PUSH2 0x2291 JUMP JUMPDEST PUSH1 0x2 DUP1 SLOAD PUSH1 0xFF NOT AND PUSH1 0x1 OR SWAP1 SSTORE PUSH32 0x62E78CEA01BEE320CD4E420270B5EA74000D11B0C9F74754EBDBFC544B05A258 PUSH2 0x1AFA CALLER SWAP1 JUMP JUMPDEST PUSH2 0x1CEB DUP3 DUP3 PUSH2 0x1340 JUMP JUMPDEST ISZERO PUSH2 0x12B0 JUMPI PUSH1 0x0 DUP3 DUP2 MSTORE PUSH1 0x20 DUP2 DUP2 MSTORE PUSH1 0x40 DUP1 DUP4 KECCAK256 PUSH1 0x1 PUSH1 0x1 PUSH1 0xA0 SHL SUB DUP6 AND DUP1 DUP6 MSTORE SWAP3 MSTORE DUP1 DUP4 KECCAK256 DUP1 SLOAD PUSH1 0xFF NOT AND SWAP1 SSTORE MLOAD CALLER SWAP3 DUP6 SWAP2 PUSH32 0xF6391F5C32D9C69D2A47EA670B442974B53935D1EDC7FD64EB21E047A839171B SWAP2 SWAP1 LOG4 POP POP JUMP JUMPDEST PUSH1 0x0 PUSH32 0x0 PUSH1 0x1 PUSH1 0x1 PUSH1 0xA0 SHL SUB AND PUSH4 0x4000AEA0 PUSH32 0x0 DUP5 DUP7 PUSH1 0x0 PUSH1 0x40 MLOAD PUSH1 0x20 ADD PUSH2 0x1DB6 SWAP3 SWAP2 SWAP1 SWAP2 DUP3 MSTORE PUSH1 0x20 DUP3 ADD MSTORE PUSH1 0x40 ADD SWAP1 JUMP JUMPDEST PUSH1 0x40 MLOAD PUSH1 0x20 DUP2 DUP4 SUB SUB DUP2 MSTORE SWAP1 PUSH1 0x40 MSTORE PUSH1 0x40 MLOAD DUP5 PUSH4 0xFFFFFFFF AND PUSH1 0xE0 SHL DUP2 MSTORE PUSH1 0x4 ADD PUSH2 0x1DE3 SWAP4 SWAP3 SWAP2 SWAP1 PUSH2 0x24EE JUMP JUMPDEST PUSH1 0x20 PUSH1 0x40 MLOAD DUP1 DUP4 SUB DUP2 PUSH1 0x0 DUP8 GAS CALL ISZERO DUP1 ISZERO PUSH2 0x1E02 JUMPI RETURNDATASIZE PUSH1 0x0 DUP1 RETURNDATACOPY RETURNDATASIZE PUSH1 0x0 REVERT JUMPDEST POP POP POP POP PUSH1 0x40 MLOAD RETURNDATASIZE PUSH1 0x1F NOT PUSH1 0x1F DUP3 ADD AND DUP3 ADD DUP1 PUSH1 0x40 MSTORE POP DUP2 ADD SWAP1 PUSH2 0x1E26 SWAP2 SWAP1 PUSH2 0x251E JUMP JUMPDEST POP PUSH1 0x0 DUP4 DUP2 MSTORE PUSH1 0x1 PUSH1 0x20 DUP2 DUP2 MSTORE PUSH1 0x40 DUP1 DUP5 KECCAK256 SLOAD DUP2 MLOAD DUP1 DUP5 ADD DUP10 SWAP1 MSTORE DUP1 DUP4 ADD DUP7 SWAP1 MSTORE ADDRESS PUSH1 0x60 DUP3 ADD MSTORE PUSH1 0x80 DUP1 DUP3 ADD DUP4 SWAP1 MSTORE DUP4 MLOAD DUP1 DUP4 SUB SWAP1 SWAP2 ADD DUP2 MSTORE PUSH1 0xA0 SWAP1 SWAP2 ADD SWAP1 SWAP3 MSTORE DUP2 MLOAD SWAP2 DUP4 ADD SWAP2 SWAP1 SWAP2 KECCAK256 SWAP4 DUP8 SWAP1 MSTORE SWAP1 DUP3 SWAP1 MSTORE PUSH2 0x1E81 SWAP2 PUSH2 0x2367 JUMP JUMPDEST PUSH1 0x0 DUP6 DUP2 MSTORE PUSH1 0x1 PUSH1 0x20 MSTORE PUSH1 0x40 SWAP1 KECCAK256 SSTORE PUSH2 0x1EC1 DUP5 DUP3 PUSH1 0x40 DUP1 MLOAD PUSH1 0x20 DUP1 DUP3 ADD SWAP5 SWAP1 SWAP5 MSTORE DUP1 DUP3 ADD SWAP3 SWAP1 SWAP3 MSTORE DUP1 MLOAD DUP1 DUP4 SUB DUP3 ADD DUP2 MSTORE PUSH1 0x60 SWAP1 SWAP3 ADD SWAP1 MSTORE DUP1 MLOAD SWAP2 ADD KECCAK256 SWAP1 JUMP JUMPDEST SWAP5 SWAP4 POP POP POP POP JUMP JUMPDEST PUSH1 0x60 PUSH1 0x0 PUSH2 0x1ED8 DUP4 PUSH1 0x2 PUSH2 0x231E JUMP JUMPDEST PUSH2 0x1EE3 SWAP1 PUSH1 0x2 PUSH2 0x2367 JUMP JUMPDEST PUSH8 0xFFFFFFFFFFFFFFFF DUP2 GT ISZERO PUSH2 0x1EFB JUMPI PUSH2 0x1EFB PUSH2 0x2540 JUMP JUMPDEST PUSH1 0x40 MLOAD SWAP1 DUP1 DUP3 MSTORE DUP1 PUSH1 0x1F ADD PUSH1 0x1F NOT AND PUSH1 0x20 ADD DUP3 ADD PUSH1 0x40 MSTORE DUP1 ISZERO PUSH2 0x1F25 JUMPI PUSH1 0x20 DUP3 ADD DUP2 DUP1 CALLDATASIZE DUP4 CALLDATACOPY ADD SWAP1 POP JUMPDEST POP SWAP1 POP PUSH1 0x3 PUSH1 0xFC SHL DUP2 PUSH1 0x0 DUP2 MLOAD DUP2 LT PUSH2 0x1F40 JUMPI PUSH2 0x1F40 PUSH2 0x2396 JUMP JUMPDEST PUSH1 0x20 ADD ADD SWAP1 PUSH1 0x1 PUSH1 0x1 PUSH1 0xF8 SHL SUB NOT AND SWAP1 DUP2 PUSH1 0x0 BYTE SWAP1 MSTORE8 POP PUSH1 0xF PUSH1 0xFB SHL DUP2 PUSH1 0x1 DUP2 MLOAD DUP2 LT PUSH2 0x1F6F JUMPI PUSH2 0x1F6F PUSH2 0x2396 JUMP JUMPDEST PUSH1 0x20 ADD ADD SWAP1 PUSH1 0x1 PUSH1 0x1 PUSH1 0xF8 SHL SUB NOT AND SWAP1 DUP2 PUSH1 0x0 BYTE SWAP1 MSTORE8 POP PUSH1 0x0 PUSH2 0x1F93 DUP5 PUSH1 0x2 PUSH2 0x231E JUMP JUMPDEST PUSH2 0x1F9E SWAP1 PUSH1 0x1 PUSH2 0x2367 JUMP JUMPDEST SWAP1 POP JUMPDEST PUSH1 0x1 DUP2 GT ISZERO PUSH2 0x2016 JUMPI PUSH16 0x181899199A1A9B1B9C1CB0B131B232B3 PUSH1 0x81 SHL DUP6 PUSH1 0xF AND PUSH1 0x10 DUP2 LT PUSH2 0x1FD2 JUMPI PUSH2 0x1FD2 PUSH2 0x2396 JUMP JUMPDEST BYTE PUSH1 0xF8 SHL DUP3 DUP3 DUP2 MLOAD DUP2 LT PUSH2 0x1FE8 JUMPI PUSH2 0x1FE8 PUSH2 0x2396 JUMP JUMPDEST PUSH1 0x20 ADD ADD SWAP1 PUSH1 0x1 PUSH1 0x1 PUSH1 0xF8 SHL SUB NOT AND SWAP1 DUP2 PUSH1 0x0 BYTE SWAP1 MSTORE8 POP PUSH1 0x4 SWAP5 SWAP1 SWAP5 SHR SWAP4 PUSH2 0x200F DUP2 PUSH2 0x2556 JUMP JUMPDEST SWAP1 POP PUSH2 0x1FA1 JUMP JUMPDEST POP DUP4 ISZERO PUSH2 0x2065 JUMPI PUSH1 0x40 MLOAD PUSH3 0x461BCD PUSH1 0xE5 SHL DUP2 MSTORE PUSH1 0x20 PUSH1 0x4 DUP3 ADD DUP2 SWAP1 MSTORE PUSH1 0x24 DUP3 ADD MSTORE PUSH32 0x537472696E67733A20686578206C656E67746820696E73756666696369656E74 PUSH1 0x44 DUP3 ADD MSTORE PUSH1 0x64 ADD PUSH2 0x713 JUMP JUMPDEST SWAP4 SWAP3 POP POP POP JUMP JUMPDEST PUSH1 0x0 PUSH1 0x20 DUP3 DUP5 SUB SLT ISZERO PUSH2 0x207E JUMPI PUSH1 0x0 DUP1 REVERT JUMPDEST DUP2 CALLDATALOAD PUSH1 0x1 PUSH1 0x1 PUSH1 0xE0 SHL SUB NOT DUP2 AND DUP2 EQ PUSH2 0x2065 JUMPI PUSH1 0x0 DUP1 REVERT JUMPDEST PUSH1 0x0 DUP1 PUSH1 0x40 DUP4 DUP6 SUB SLT ISZERO PUSH2 0x20A9 JUMPI PUSH1 0x0 DUP1 REVERT JUMPDEST POP POP DUP1 CALLDATALOAD SWAP3 PUSH1 0x20 SWAP1 SWAP2 ADD CALLDATALOAD SWAP2 POP JUMP JUMPDEST DUP1 CALLDATALOAD PUSH1 0x1 PUSH1 0x1 PUSH1 0xA0 SHL SUB DUP2 AND DUP2 EQ PUSH2 0x20CF JUMPI PUSH1 0x0 DUP1 REVERT JUMPDEST SWAP2 SWAP1 POP JUMP JUMPDEST PUSH1 0x0 DUP1 PUSH1 0x0 DUP1 PUSH1 0x0 PUSH1 0x80 DUP7 DUP9 SUB SLT ISZERO PUSH2 0x20EC JUMPI PUSH1 0x0 DUP1 REVERT JUMPDEST PUSH2 0x20F5 DUP7 PUSH2 0x20B8 JUMP JUMPDEST SWAP5 POP PUSH2 0x2103 PUSH1 0x20 DUP8 ADD PUSH2 0x20B8 JUMP JUMPDEST SWAP4 POP PUSH1 0x40 DUP7 ADD CALLDATALOAD SWAP3 POP PUSH1 0x60 DUP7 ADD CALLDATALOAD PUSH8 0xFFFFFFFFFFFFFFFF DUP1 DUP3 GT ISZERO PUSH2 0x2127 JUMPI PUSH1 0x0 DUP1 REVERT JUMPDEST DUP2 DUP9 ADD SWAP2 POP DUP9 PUSH1 0x1F DUP4 ADD SLT PUSH2 0x213B JUMPI PUSH1 0x0 DUP1 REVERT JUMPDEST DUP2 CALLDATALOAD DUP2 DUP2 GT ISZERO PUSH2 0x214A JUMPI PUSH1 0x0 DUP1 REVERT JUMPDEST DUP10 PUSH1 0x20 DUP3 DUP6 ADD ADD GT ISZERO PUSH2 0x215C JUMPI PUSH1 0x0 DUP1 REVERT JUMPDEST SWAP7 SWAP10 SWAP6 SWAP9 POP SWAP4 SWAP7 POP PUSH1 0x20 ADD SWAP5 SWAP4 SWAP3 POP POP POP JUMP JUMPDEST PUSH1 0x0 PUSH1 0x20 DUP3 DUP5 SUB SLT ISZERO PUSH2 0x2181 JUMPI PUSH1 0x0 DUP1 REVERT JUMPDEST POP CALLDATALOAD SWAP2 SWAP1 POP JUMP JUMPDEST PUSH1 0x0 DUP1 PUSH1 0x40 DUP4 DUP6 SUB SLT ISZERO PUSH2 0x219B JUMPI PUSH1 0x0 DUP1 REVERT JUMPDEST DUP3 CALLDATALOAD SWAP2 POP PUSH2 0x21AB PUSH1 0x20 DUP5 ADD PUSH2 0x20B8 JUMP JUMPDEST SWAP1 POP SWAP3 POP SWAP3 SWAP1 POP JUMP JUMPDEST PUSH1 0x0 PUSH1 0x20 DUP3 DUP5 SUB SLT ISZERO PUSH2 0x21C6 JUMPI PUSH1 0x0 DUP1 REVERT JUMPDEST PUSH2 0x2065 DUP3 PUSH2 0x20B8 JUMP JUMPDEST PUSH1 0x20 DUP1 DUP3 MSTORE DUP3 MLOAD DUP3 DUP3 ADD DUP2 SWAP1 MSTORE PUSH1 0x0 SWAP2 SWAP1 DUP5 DUP3 ADD SWAP1 PUSH1 0x40 DUP6 ADD SWAP1 DUP5 JUMPDEST DUP2 DUP2 LT ISZERO PUSH2 0x2210 JUMPI DUP4 MLOAD PUSH1 0x1 PUSH1 0x1 PUSH1 0xA0 SHL SUB AND DUP4 MSTORE SWAP3 DUP5 ADD SWAP3 SWAP2 DUP5 ADD SWAP2 PUSH1 0x1 ADD PUSH2 0x21EB JUMP JUMPDEST POP SWAP1 SWAP7 SWAP6 POP POP POP POP POP POP JUMP JUMPDEST PUSH1 0x0 DUP1 PUSH1 0x20 DUP4 DUP6 SUB SLT ISZERO PUSH2 0x222F JUMPI PUSH1 0x0 DUP1 REVERT JUMPDEST DUP3 CALLDATALOAD PUSH8 0xFFFFFFFFFFFFFFFF DUP1 DUP3 GT ISZERO PUSH2 0x2247 JUMPI PUSH1 0x0 DUP1 REVERT JUMPDEST DUP2 DUP6 ADD SWAP2 POP DUP6 PUSH1 0x1F DUP4 ADD SLT PUSH2 0x225B JUMPI PUSH1 0x0 DUP1 REVERT JUMPDEST DUP2 CALLDATALOAD DUP2 DUP2 GT ISZERO PUSH2 0x226A JUMPI PUSH1 0x0 DUP1 REVERT JUMPDEST DUP7 PUSH1 0x20 DUP3 PUSH1 0x5 SHL DUP6 ADD ADD GT ISZERO PUSH2 0x227F JUMPI PUSH1 0x0 DUP1 REVERT JUMPDEST PUSH1 0x20 SWAP3 SWAP1 SWAP3 ADD SWAP7 SWAP2 SWAP6 POP SWAP1 SWAP4 POP POP POP POP JUMP JUMPDEST PUSH1 0x20 DUP1 DUP3 MSTORE PUSH1 0x10 SWAP1 DUP3 ADD MSTORE PUSH16 0x14185D5CD8589B194E881C185D5CD959 PUSH1 0x82 SHL PUSH1 0x40 DUP3 ADD MSTORE PUSH1 0x60 ADD SWAP1 JUMP JUMPDEST PUSH1 0x20 DUP1 DUP3 MSTORE PUSH1 0x2D SWAP1 DUP3 ADD MSTORE PUSH32 0x526166666C653A20436F6E747261637420646F6573206E6F74206F776E207261 PUSH1 0x40 DUP3 ADD MSTORE PUSH13 0x33333632B0B136329027232A17 PUSH1 0x99 SHL PUSH1 0x60 DUP3 ADD MSTORE PUSH1 0x80 ADD SWAP1 JUMP JUMPDEST PUSH4 0x4E487B71 PUSH1 0xE0 SHL PUSH1 0x0 MSTORE PUSH1 0x11 PUSH1 0x4 MSTORE PUSH1 0x24 PUSH1 0x0 REVERT JUMPDEST PUSH1 0x0 DUP2 PUSH1 0x0 NOT DIV DUP4 GT DUP3 ISZERO ISZERO AND ISZERO PUSH2 0x2338 JUMPI PUSH2 0x2338 PUSH2 0x2308 JUMP JUMPDEST POP MUL SWAP1 JUMP JUMPDEST PUSH4 0x4E487B71 PUSH1 0xE0 SHL PUSH1 0x0 MSTORE PUSH1 0x12 PUSH1 0x4 MSTORE PUSH1 0x24 PUSH1 0x0 REVERT JUMPDEST PUSH1 0x0 DUP3 PUSH2 0x2362 JUMPI PUSH2 0x2362 PUSH2 0x233D JUMP JUMPDEST POP DIV SWAP1 JUMP JUMPDEST PUSH1 0x0 DUP3 NOT DUP3 GT ISZERO PUSH2 0x237A JUMPI PUSH2 0x237A PUSH2 0x2308 JUMP JUMPDEST POP ADD SWAP1 JUMP JUMPDEST PUSH1 0x0 DUP3 DUP3 LT ISZERO PUSH2 0x2391 JUMPI PUSH2 0x2391 PUSH2 0x2308 JUMP JUMPDEST POP SUB SWAP1 JUMP JUMPDEST PUSH4 0x4E487B71 PUSH1 0xE0 SHL PUSH1 0x0 MSTORE PUSH1 0x32 PUSH1 0x4 MSTORE PUSH1 0x24 PUSH1 0x0 REVERT JUMPDEST PUSH4 0x4E487B71 PUSH1 0xE0 SHL PUSH1 0x0 MSTORE PUSH1 0x31 PUSH1 0x4 MSTORE PUSH1 0x24 PUSH1 0x0 REVERT JUMPDEST PUSH1 0x0 PUSH1 0x0 NOT DUP3 EQ ISZERO PUSH2 0x23D6 JUMPI PUSH2 0x23D6 PUSH2 0x2308 JUMP JUMPDEST POP PUSH1 0x1 ADD SWAP1 JUMP JUMPDEST PUSH1 0x0 DUP3 PUSH2 0x23EC JUMPI PUSH2 0x23EC PUSH2 0x233D JUMP JUMPDEST POP MOD SWAP1 JUMP JUMPDEST PUSH1 0x0 PUSH1 0x20 DUP3 DUP5 SUB SLT ISZERO PUSH2 0x2403 JUMPI PUSH1 0x0 DUP1 REVERT JUMPDEST POP MLOAD SWAP2 SWAP1 POP JUMP JUMPDEST PUSH1 0x0 JUMPDEST DUP4 DUP2 LT ISZERO PUSH2 0x2425 JUMPI DUP2 DUP2 ADD MLOAD DUP4 DUP3 ADD MSTORE PUSH1 0x20 ADD PUSH2 0x240D JUMP JUMPDEST DUP4 DUP2 GT ISZERO PUSH2 0x2434 JUMPI PUSH1 0x0 DUP5 DUP5 ADD MSTORE JUMPDEST POP POP POP POP JUMP JUMPDEST PUSH32 0x416363657373436F6E74726F6C3A206163636F756E7420000000000000000000 DUP2 MSTORE PUSH1 0x0 DUP4 MLOAD PUSH2 0x2472 DUP2 PUSH1 0x17 DUP6 ADD PUSH1 0x20 DUP9 ADD PUSH2 0x240A JUMP JUMPDEST PUSH17 0x1034B99036B4B9B9B4B733903937B6329 PUSH1 0x7D SHL PUSH1 0x17 SWAP2 DUP5 ADD SWAP2 DUP3 ADD MSTORE DUP4 MLOAD PUSH2 0x24A3 DUP2 PUSH1 0x28 DUP5 ADD PUSH1 0x20 DUP9 ADD PUSH2 0x240A JUMP JUMPDEST ADD PUSH1 0x28 ADD SWAP5 SWAP4 POP POP POP POP JUMP JUMPDEST PUSH1 0x0 DUP2 MLOAD DUP1 DUP5 MSTORE PUSH2 0x24C7 DUP2 PUSH1 0x20 DUP7 ADD PUSH1 0x20 DUP7 ADD PUSH2 0x240A JUMP JUMPDEST PUSH1 0x1F ADD PUSH1 0x1F NOT AND SWAP3 SWAP1 SWAP3 ADD PUSH1 0x20 ADD SWAP3 SWAP2 POP POP JUMP JUMPDEST PUSH1 0x20 DUP2 MSTORE PUSH1 0x0 PUSH2 0x2065 PUSH1 0x20 DUP4 ADD DUP5 PUSH2 0x24AF JUMP JUMPDEST PUSH1 0x1 DUP1 PUSH1 0xA0 SHL SUB DUP5 AND DUP2 MSTORE DUP3 PUSH1 0x20 DUP3 ADD MSTORE PUSH1 0x60 PUSH1 0x40 DUP3 ADD MSTORE PUSH1 0x0 PUSH2 0x2515 PUSH1 0x60 DUP4 ADD DUP5 PUSH2 0x24AF JUMP JUMPDEST SWAP6 SWAP5 POP POP POP POP POP JUMP JUMPDEST PUSH1 0x0 PUSH1 0x20 DUP3 DUP5 SUB SLT ISZERO PUSH2 0x2530 JUMPI PUSH1 0x0 DUP1 REVERT JUMPDEST DUP2 MLOAD DUP1 ISZERO ISZERO DUP2 EQ PUSH2 0x2065 JUMPI PUSH1 0x0 DUP1 REVERT JUMPDEST PUSH4 0x4E487B71 PUSH1 0xE0 SHL PUSH1 0x0 MSTORE PUSH1 0x41 PUSH1 0x4 MSTORE PUSH1 0x24 PUSH1 0x0 REVERT JUMPDEST PUSH1 0x0 DUP2 PUSH2 0x2565 JUMPI PUSH2 0x2565 PUSH2 0x2308 JUMP JUMPDEST POP PUSH1 0x0 NOT ADD SWAP1 JUMP INVALID LOG2 PUSH5 0x6970667358 0x22 SLT KECCAK256 PUSH27 0x589DB1FA7BE09BF0D8E3F25E86DD23F00E80B22FB8DD71BC4A928C PUSH12 0xFA736F64736F6C634300080A STOP CALLER ",
  "sha1": "033b0bc42456df4728c184b5c97ba145957650d9",
  "source": "// SPDX-License-Identifier: MIT\npragma solidity ^0.8.0;\n\n// import \"@openzeppelin/contracts/token/ERC20/IERC20.sol\";\n// import \"@openzeppelin/contracts/token/ERC20/utils/SafeERC20.sol\";\nimport \"@openzeppelin/contracts/access/AccessControl.sol\";\nimport \"@openzeppelin/contracts/security/Pausable.sol\";\nimport \"@openzeppelin/contracts/token/ERC721/IERC721.sol\";\nimport \"@chainlink/contracts/src/v0.8/VRFConsumerBase.sol\";\nimport \"@openzeppelin/contracts/token/ERC721/IERC721Receiver.sol\";\n\n/**\n* @dev Raffle Contract\n* @author merkle-groot\n*/\ncontract Raffle is AccessControl, VRFConsumerBase, Pausable, IERC721Receiver{\n    // ============ Immutable storage ============\n\n    // Chainlink keyHash\n    bytes32 internal immutable keyHash;\n    // Chainlink fee\n    uint256 internal immutable fee;\n    // Price (in Ether) per raffle slot\n    uint256 public slotPrice;\n    // Number of total available raffle slots\n    uint256 public numSlotsAvailable;\n    // Address of NFT contract\n    address public nftContract;\n    // Treasury Role \n    bytes32 public constant TREASURY_ROLE = keccak256(\"TREASURY_ROLE\");\n    // Treasury address which manages the locked funds\n    address public treasury;\n    // No of Raffle Rounds\n    uint256 public noOfRounds = 0;\n    // Current Phase of a Round\n    int256 public currentPhase = -1;\n    // Used for time delay\n    uint256 public countDown;\n    // Stores if Raffle is Stopped by the operator\n    uint256 public isStopped = 0;\n     // NFT ID\n    uint256 public nftID;\n\n    // ============ Mutable storage ============\n\n    // struct to store info about addresses that own/owned a slot\n    struct slotOwner{\n        uint256 noOfSlots;        \n        uint256 noOfSlotsBought;\n        uint256 enteredRound;\n    }\n    // Result from Chainlink VRF\n    uint256 public randomResult = 0;\n    // Toggled when contract requests result from Chainlink VRF\n    bool public randomResultRequested = false;\n    // Number of filled raffle slots\n    uint256 public numSlotsFilled = 0;\n    // Array of slot owners\n    address[] public slotOwners;\n    // Array of deleted slots to be filled while buying slots\n    uint256[] public deletedSlots;\n    // Mapping of slot owners to number of slots owned\n    mapping(address => slotOwner) public addressToSlotsOwner;\n    // Toggled when contract holds NFT to raffle\n    bool public nftOwned = false;\n\n    // ============ Events ============\n\n    // Address of slot claimee and number of slots claimed\n    event SlotsClaimed(address indexed claimee, uint256 numClaimed);\n    // Address of slot refunder and number of slots refunded\n    event SlotsRefunded(address indexed refunder, uint256 numRefunded);\n    // Address of raffle winner\n    event RaffleWon(address indexed winner);\n\n    // ============ Constructor ============\n\n\n    event TreasuryAddressChanged(\n        address\n    );\n\n    constructor(\n        address _treasuryOwner,\n        address _treasuryAddress,\n        address _nftAddress,\n        uint256 _slotPrice,\n        bytes32 _keyhash,\n        address _vrfCoordinator, \n        address _linkToken, \n        uint256 _fee,\n        uint256 _numSlotsAvailable\n    )  VRFConsumerBase(\n        _vrfCoordinator, // VRF Coordinator\n        _linkToken\n    ){\n        _setupRole(DEFAULT_ADMIN_ROLE, msg.sender);\n        _setupRole(TREASURY_ROLE, _treasuryOwner);\n        treasury = _treasuryAddress;\n        keyHash = _keyhash;\n        nftContract = _nftAddress;\n        fee = _fee; \n        slotPrice = _slotPrice;\n        numSlotsAvailable = _numSlotsAvailable;\n    }\n      // ============ Functions ============\n\n    /**\n    * @dev Function used to buy slots or get free slots\n    * @param _numSlots No of slots\n    * @param _method 0 if buying, 1 if getting it for free\n    * @notice For getting free slots, the number must be calculated at front-end\n    */\n    function purchaseSlot(uint256 _numSlots, uint256 _method) payable external whenNotPaused(){\n        // method 0 -> buy slots\n        // method 1 -> get free slots\n\n        // Require the currentPhase to be the Raffle phase\n        require(currentPhase == 0, \"Cannot buy during this round\");\n        // Require purchasing at least 1 slot\n        require(_numSlots > 0, \"Raffle: Cannot purchase 0 slots.\");\n        // Require the raffle contract to own the NFT to raffle\n        require(nftOwned == true, \"Raffle: Contract does not own raffleable NFT.\");\n        // Require there to be available raffle slots\n        require(numSlotsFilled < numSlotsAvailable, \"Raffle: All raffle slots are filled.\");\n        // Prevent claiming after winner selection\n        require(randomResultRequested == false, \"Raffle: Cannot purchase slot after winner has been chosen.\");\n        // Require appropriate payment for number of slots to purchase if the method is 0\n        require(msg.value >= _numSlots * slotPrice || _method == 1, \"Raffle: Insufficient ETH provided to purchase slots.\");\n        // Require the caller to have participated in the last round if the method is 1\n        require((addressToSlotsOwner[msg.sender].enteredRound < noOfRounds && _numSlots <= (addressToSlotsOwner[msg.sender].noOfSlotsBought/10 + 1)) || _method == 0, \"Raffle: Cannot increment slots in this round\");\n        // Require number of slots to purchase to be <= number of available slots\n        require(_numSlots <= numSlotsAvailable - numSlotsFilled, \"Raffle: Requesting to purchase too many slots.\");\n\n        uint256 idx = 0;\n\n        // Try to allot the deleted slots if available\n        while (deletedSlots.length != 0){\n            slotOwners[deletedSlots[deletedSlots.length - 1]] = msg.sender;\n            deletedSlots.pop();\n            idx++;\n        }\n\n        // Allot new slots\n        if(idx < _numSlots){\n            // For each _numSlots\n            for (uint256 i = 0; i < _numSlots - idx; i++) {\n                // Add address to slot owners array\n                slotOwners.push(msg.sender);\n            }\n        }\n\n        // Increment filled slots\n        numSlotsFilled = numSlotsFilled + _numSlots;\n        // Increment slots owned by address\n        addressToSlotsOwner[msg.sender].noOfSlots += _numSlots;\n        addressToSlotsOwner[msg.sender].enteredRound = noOfRounds;\n\n        // Increment the slots bought count if method is 0\n        if(_method == 0){\n            addressToSlotsOwner[msg.sender].noOfSlotsBought += _numSlots;\n        }\n        // Emit claim event\n        emit SlotsClaimed(msg.sender, _numSlots);\n    }\n\n    /**\n    * @dev Function to get refund from the raffle\n    * @param deleteIndices Pass the array of indices to be deleted\n    * @notice Only bought slots can be refunded\n    */\n    function refundSlot(uint[] calldata deleteIndices) external whenNotPaused(){\n        //Require the currentPhase to be the raffle Round\n        require(currentPhase == 0 || isStopped == 1, \"Raffle: Cannot refund during this round.\");\n        // Require the raffle contract to own the NFT to raffle\n        require(nftOwned == true || isStopped == 1, \"Raffle: Contract does not own raffleable NFT.\");\n        // Require number of slots owned by address to be >= _numSlots requested for refund\n        require(addressToSlotsOwner[msg.sender].noOfSlotsBought >= deleteIndices.length, \"Raffle: Address did not buy these slots.\");\n\n        uint256 idx = 0;\n        uint256 deletedCount = 0;\n\n        // Loop through all entries \n        while (idx < deleteIndices.length) {\n            if(deleteIndices[idx] < slotOwners.length){\n                if (slotOwners[deleteIndices[idx]] == msg.sender) {\n                    slotOwners[deleteIndices[idx]] = address(0);\n                    deletedSlots.push(deleteIndices[idx]);\n                    deletedCount += 1;\n                }\n            }\n            idx++;\n        }\n\n        // Repay raffle participant\n        payable(msg.sender).transfer(deletedCount * slotPrice);\n        // Decrement filled slots\n        numSlotsFilled = numSlotsFilled - deletedCount;\n        // Decrement slots owned by address\n        addressToSlotsOwner[msg.sender].noOfSlots -= deletedCount;\n        addressToSlotsOwner[msg.sender].noOfSlotsBought -= deletedCount;\n\n        // Emit refund event\n        emit SlotsRefunded(msg.sender, deletedCount);\n    }\n\n    /**\n    * @dev Internal Function called by exitLockPeriod\n    * @notice Calls the Chainlink Oracle\n    */\n    function collectRandomWinner() internal returns (bytes32 requestId) {\n        // Require at least 1 raffle slot to be filled\n        require(numSlotsFilled > 0, \"Raffle: No slots are filled\");\n        // Require NFT to be owned by raffle contract\n        require(nftOwned == true, \"Raffle: Contract does not own raffleable NFT.\");\n        // Require this to be the first time that randomness is requested\n        require(randomResultRequested == false, \"Raffle: Cannot collect winner twice.\");\n\n        // Toggle randomness requested\n        randomResultRequested = true;\n\n        // Call for random number\n        return getRandomNumber();\n    }\n\n    function stopTheRaffle() external onlyRole(DEFAULT_ADMIN_ROLE){\n        isStopped = 1;\n\n        IERC721(nftContract).safeTransferFrom(address(this), msg.sender, nftID);\n        nftOwned = false;\n    }\n\n    /**\n    * Disburses NFT to winner and raised raffle pool to owner\n    */\n    function disburseWinner() external {\n        // Require that the contract holds the NFT\n        require(nftOwned == true, \"Raffle: Cannot disurbse NFT to winner without holding NFT.\");\n        // Require that a winner has been collected already\n        require(randomResultRequested == true, \"Raffle: Cannot disburse to winner without having collected one.\");\n        // Require that the random result is not 0\n        require(randomResult != 0, \"Raffle: Please wait for Chainlink VRF to update the winner first.\");\n\n        uint256 randomNumber = randomResult;\n        address winner;\n\n        while(true){\n            if(slotOwners[randomNumber % slotOwners.length] != address(0)){\n                winner = slotOwners[randomNumber % slotOwners.length];\n                break;\n            }\n\n            randomNumber += 1;        \n        }\n\n        // Transfer NFT to winner\n        IERC721(nftContract).safeTransferFrom(address(this), winner, nftID);\n\n        // Toggle nftOwned\n        nftOwned = false;\n\n        // Toggle randomness requested to false\n        randomResultRequested = false;\n\n        // Reset result\n        randomResult = 0;\n\n        // Emit raffle winner\n        emit RaffleWon(winner);\n    }\n\n    /**\n    * @dev Function to lock the funds and enter phase 1\n    * @notice Can only be called by admin role\n    */\n    function enterLockPeriod() external onlyRole(DEFAULT_ADMIN_ROLE) {\n        require(currentPhase == 0, \"Can only call this after raffle round\");\n        require(countDown > block.timestamp, \"Contract is still in raffle round\");\n        \n        currentPhase = 1;\n        countDown = block.timestamp + 30 days;\n        _pause();\n    }\n\n    /**\n    * @dev Function to return -1 phase and call the chainlink oracle\n    * @notice Can only be called by the admin role   \n    */\n    function exitLockPeriod() external onlyRole(DEFAULT_ADMIN_ROLE) whenPaused() returns (bytes32 requestId){\n        require(currentPhase == 1, \"Can only call this after lock period\");\n        require(countDown > block.timestamp, \"Contract is still in lock period\");\n\n\n        _unpause();\n        currentPhase = -1;\n        return collectRandomWinner();\n    }\n\n\n    /**\n    * @dev Called by the NFT contract\n    */\n    function onERC721Received(\n        address operator,\n        address from, \n        uint256 tokenId,\n        bytes calldata data\n    ) external virtual override returns (bytes4) {\n        // Require NFT from correct contract\n        require(from == nftContract, \"Raffle: Raffle not initiated with this NFT contract.\");\n        require(currentPhase == -1 && nftOwned == false, \"Cannot receive NFT at this phase\");\n        \n        nftID = tokenId;\n\n        currentPhase = 0;\n        noOfRounds++;\n        countDown = block.timestamp + 7 days;\n        // Toggle contract NFT ownership\n        nftOwned = true;\n\n        // Return required successful interface bytes\n        return this.onERC721Received.selector;\n    }\n\n    /** \n     * Requests randomness \n     */\n    function getRandomNumber() public returns (bytes32 requestId) {\n        require(LINK.balanceOf(address(this)) >= fee, \"Not enough LINK - fill contract with faucet\");\n        return requestRandomness(keyHash, fee);\n    }\n\n    /**\n     * Callback function used by VRF Coordinator\n     */\n    function fulfillRandomness(bytes32 requestId, uint256 randomness) internal override {\n        randomResult = randomness;\n    }\n\n\n    /**\n    * @dev Function that allows changing the treasury address\n    * @notice Can only be called by the owner of the contract\n    * @param newTreasuryAddress The new address to which the collected fees will be spent\n     */\n    function changeTreasuryAddress(address newTreasuryAddress) public onlyRole(TREASURY_ROLE){\n        require(newTreasuryAddress != address(0), \"Non zero address required\");\n        treasury = newTreasuryAddress;\n        emit TreasuryAddressChanged(newTreasuryAddress);\n    }\n\n    function getSlotOwners()public view returns(address [] memory){\n        return slotOwners;\n    }\n}\n",
  "sourcePath": "contracts/Raffle.sol",
  "type": "contract"
}